:020000040800F2
:1000000000280020D5230008652300086B23000882
:1000100071230008772300087D23000800000000FA
:100020000000000000000000000000008323000822
:100030008F230008000000009B230008A72300086E
:100040001D2400081D2400081D2400081D2400088C
:100050001D2400081D2400081D2400081D2400087C
:100060001D2400081D2400081D2400081D2400086C
:100070001D2400081D2400081D2400081D2400085C
:100080001D2400081D2400081D2400081D2400084C
:100090001D2400081D2400081D2400081D2400083C
:1000A0001D2400081D2400081D2400081D2400082C
:1000B000B52300081D240008000000001D240008CE
:1000C0001D24000800000000000000001D2400089E
:1000D000000000001D2400081D240008000000008E
:1000E0001D2400081D2400081D2400080000000035
:1000F0000000000000000000000000000000000000
:0C01000000000000000000005FF808F1A3
:10010C0010B5054C237833B9044B13B10448AFF345
:10011C0000800123237010BD0C00002000000000A3
:10012C00203A000808B5034B1BB103490348AFF351
:10013C00008008BD0000000010000020203A0008DC
:10014C0080B582B000AF786001224FF6FF71C748CE
:10015C0002F04AFC7B68072B00F2C18101A252F825
:10016C0023F000BF91010008FB01000865020008A4
:10017C00CF02000839030008A30300080D0400088F
:10018C008104000801220421B94802F02DFC01224F
:10019C000821B74802F028FC01224FF48061B448D2
:1001AC0002F022FC00224FF40061B14802F01CFC6A
:1001BC0000224FF48051AE4802F016FC01224FF49D
:1001CC000051AB4802F010FC01224FF48041A848CA
:1001DC0002F00AFC01224FF40041A54802F004FC95
:1001EC0000224FF48071A14802F0FEFB78E101225D
:1001FC0004219F4802F0F8FB012208219C4802F0E0
:10020C00F3FB00224FF48061994802F0EDFB0022D1
:10021C004FF40061964802F0E7FB00224FF4805146
:10022C00934802F0E1FB00224FF40051904802F099
:10023C00DBFB01224FF480418D4802F0D5FB0122FB
:10024C004FF400418A4802F0CFFB00224FF40071BA
:10025C00864802F0C9FB43E101220421844802F0E4
:10026C00C3FB00220821824802F0BEFB00224FF49F
:10027C0080617F4802F0B8FB01224FF400617C489A
:10028C0002F0B2FB01224FF48051794802F0ACFB32
:10029C0000224FF40051764802F0A6FB00224FF4E6
:1002AC008041734802F0A0FB01224FF400417048DA
:1002BC0002F09AFB00224FF480616C4802F094FB30
:1002CC000EE1012204216A4802F08EFB0022082173
:1002DC00674802F089FB00224FF48061644802F009
:1002EC0083FB01224FF40061614802F07DFB012287
:1002FC004FF480515E4802F077FB00224FF400511E
:10030C005B4802F071FB00224FF48041584802F028
:10031C006BFB01224FF40041554802F065FB0022B3
:10032C004FF40061514802F05FFBD9E00122042137
:10033C004F4802F059FB002208214D4802F054FBB3
:10034C0000224FF480614A4802F04EFB00224FF429
:10035C000061474802F048FB00224FF480514448AA
:10036C0002F042FB00224FF40051414802F03CFBEA
:10037C0000224FF480413E4802F036FB01224FF43C
:10038C0000413B4802F030FB00224FF480513748CB
:10039C0002F02AFBA4E001220421354802F024FBE0
:1003AC0000220821324802F01FFB00224FF480612A
:1003BC002F4802F019FB01224FF400612C4802F087
:1003CC0013FB01224FF48051294802F00DFB00224F
:1003DC004FF40051264802F007FB00224FF48041F5
:1003EC00234802F001FB01224FF40041204802F0A7
:1003FC00FBFA00224FF400511C4802F0F5FA6FE0B2
:10040C00012204211A4802F0EFFA002208211848B0
:10041C0002F0EAFA00224FF48061154802F0E4FA87
:10042C0001224FF40061124802F0DEFA01224FF46F
:10043C0080510F4802F0D8FA00224FF400510C48BA
:10044C0002F0D2FA00224FF48041094802F0CCFAB3
:10045C0001224FF40041064802F0C6FA00224FF484
:10046C008041024802F0C0FA3AE000BF000C0140A3
:10047C0000080140012204211B4802F0B5FA0022B9
:10048C000821194802F0B0FA00224FF48061164896
:10049C0002F0AAFA01224FF40061134802F0A4FA08
:1004AC0001224FF48051104802F09EFA00224FF4C2
:1004BC0000510D4802F098FA00224FF480410A488E
:1004CC0002F092FA01224FF40041074802F08CFA34
:1004DC0000224FF40041054802F086FA00E000BF0C
:1004EC0000BF0837BD4680BD00080140000C01402C
:1004FC0080B582B000AF786001224FF6FF71C7481B
:10050C0002F072FA7B68072B00F2C18101A252F84B
:10051C0023F000BF41050008AB05000815060008D4
:10052C007F060008E906000853070008BD0700080D
:10053C003108000801220421B94802F055FA0122C1
:10054C000821B74802F050FA00224FF48061B448F9
:10055C0002F04AFA00224FF40061B14802F044FA6A
:10056C0001224FF48051AE4802F03EFA01224FF4C2
:10057C000051AB4802F038FA01224FF48041A848F0
:10058C0002F032FA01224FF40041A54802F02CFA95
:10059C0000224FF48071A14802F026FA78E1012282
:1005AC0004219F4802F020FA002208219C4802F006
:1005BC001BFA00224FF48061994802F015FA0022D0
:1005CC004FF40061964802F00FFA00224FF480516C
:1005DC00934802F009FA01224FF40051904802F0BE
:1005EC0003FA01224FF480418D4802F0FDF90122FB
:1005FC004FF400418A4802F0F7F900224FF40071E1
:10060C00864802F0F1F943E100220421844802F00B
:10061C00EBF900220821824802F0E6F901224FF49E
:10062C0080617F4802F0E0F901224FF400617C48C0
:10063C0002F0DAF900224FF48051794802F0D4F933
:10064C0000224FF40051764802F0CEF901224FF40B
:10065C008041734802F0C8F901224FF40041704800
:10066C0002F0C2F900224FF480616C4802F0BCF930
:10067C000EE1002204216A4802F0B6F9002208219A
:10068C00674802F0B1F901224FF48061644802F02E
:10069C00ABF901224FF40061614802F0A5F9002288
:1006AC004FF480515E4802F09FF900224FF4005144
:1006BC005B4802F099F901224FF48041584802F04E
:1006CC0093F901224FF40041554802F08DF90022B4
:1006DC004FF40061514802F087F9D9E0002204215F
:1006EC004F4802F081F9002208214D4802F07CF9B4
:1006FC0000224FF480614A4802F076F900224FF450
:10070C000061474802F070F900224FF480514448D0
:10071C0002F06AF900224FF40051414802F064F9EA
:10072C0001224FF480413E4802F05EF901224FF461
:10073C0000413B4802F058F900224FF480513748F1
:10074C0002F052F9A4E000220421354802F04CF9E1
:10075C0000220821324802F047F901224FF480614F
:10076C002F4802F041F901224FF400612C4802F0AD
:10077C003BF900224FF48051294802F035F9002250
:10078C004FF40051264802F02FF901224FF480411A
:10079C00234802F029F901224FF40041204802F0CD
:1007AC0023F900224FF400511C4802F01DF96FE0B0
:1007BC00002204211A4802F017F9002208211848D7
:1007CC0002F012F901224FF48061154802F00CF985
:1007DC0001224FF40061124802F006F900224FF496
:1007EC0080510F4802F000F900224FF400510C48E0
:1007FC0002F0FAF801224FF48041094802F0F4F8B3
:10080C0001224FF40041064802F0EEF800224FF4AA
:10081C008041024802F0E8F83AE000BF000C0140C9
:10082C0000080140002204211B4802F0DDF80022E0
:10083C000821194802F0D8F801224FF480611648BB
:10084C0002F0D2F801224FF40061134802F0CCF808
:10085C0000224FF48051104802F0C6F800224FF4E9
:10086C0000510D4802F0C0F801224FF480410A48B3
:10087C0002F0BAF801224FF40041074802F0B4F834
:10088C0000224FF40041054802F0AEF800E000BF32
:10089C0000BF0837BD4680BD00080140000C014078
:1008AC0080B582B000AF786001224FF6FF71C74867
:1008BC0002F09AF87B68072B00F2C18101A252F872
:1008CC0023F000BFF10800085B090008C509000807
:1008DC002F0A0008990A0008030B00086D0B00088A
:1008EC00E10B000801220421B94802F07DF8002236
:1008FC000821B74802F078F800224FF48061B44820
:10090C0002F072F801224FF40061B14802F06CF869
:10091C0001224FF48051AE4802F066F801224FF4E8
:10092C000051AB4802F060F801224FF48041A84816
:10093C0002F05AF801224FF40041A54802F054F895
:10094C0000224FF48071A14802F04EF878E10022A9
:10095C0004219F4802F048F8002208219C4802F02C
:10096C0043F800224FF48061994802F03DF80022D0
:10097C004FF40061964802F037F801224FF4805191
:10098C00934802F031F801224FF40051904802F0E4
:10099C002BF801224FF480418D4802F025F80122FA
:1009AC004FF400418A4802F01FF800224FF4007106
:1009BC00864802F019F843E100220421844802F031
:1009CC0013F801220821824802F00EF801224FF49C
:1009DC0080617F4802F008F800224FF400617C48E7
:1009EC0002F002F800224FF48051794801F0FCFF2C
:1009FC0001224FF40051764801F0F6FF01224FF42A
:100A0C008041734801F0F0FF00224FF40041704820
:100A1C0001F0EAFF00224FF480616C4801F0E4FF22
:100A2C000EE1002204216A4801F0DEFF01220821B8
:100A3C00674801F0D9FF01224FF48061644801F04E
:100A4C00D3FF00224FF40061614801F0CDFF00227A
:100A5C004FF480515E4801F0C7FF01224FF4005162
:100A6C005B4801F0C1FF01224FF48041584801F06E
:100A7C00BBFF00224FF40041554801F0B5FF0022A6
:100A8C004FF40061514801F0AFFFD9E0002204217E
:100A9C004F4801F0A9FF002208214D4801F0A4FFA6
:100AAC0000224FF480614A4801F09EFF00224FF46F
:100ABC000061474801F098FF00224FF480514448F0
:100ACC0001F092FF01224FF40051414801F08CFFDC
:100ADC0001224FF480413E4801F086FF00224FF482
:100AEC0000413B4801F080FF00224FF48051374811
:100AFC0001F07AFFA4E000220421354801F074FFD4
:100B0C0001220821324801F06FFF01224FF480616D
:100B1C002F4801F069FF00224FF400612C4801F0CE
:100B2C0063FF00224FF48051294801F05DFF012240
:100B3C004FF40051264801F057FF01224FF4804139
:100B4C00234801F051FF00224FF40041204801F0EE
:100B5C004BFF00224FF400511C4801F045FF6FE0A1
:100B6C00002204211A4801F03FFF012208211848F5
:100B7C0001F03AFF01224FF48061154801F034FF77
:100B8C0000224FF40061124801F02EFF00224FF4B6
:100B9C0080510F4801F028FF01224FF400510C48FE
:100BAC0001F022FF01224FF48041094801F01CFFA3
:100BBC0000224FF40041064801F016FF00224FF4CA
:100BCC008041024801F010FF3AE000BF000C0140E8
:100BDC0000080140002204211B4801F005FF0122FE
:100BEC000821194801F000FF01224FF480611648DA
:100BFC0001F0FAFE00224FF40061134801F0F4FEFC
:100C0C0000224FF48051104801F0EEFE01224FF407
:100C1C0000510D4801F0E8FE01224FF480410A48D2
:100C2C0001F0E2FE00224FF40041074801F0DCFE27
:100C3C0000224FF40041054801F0D6FE00E000BF51
:100C4C0000BF0837BD4680BD00080140000C0140C4
:100C5C0080B582B000AF786001224FF6FF71C748B3
:100C6C0001F0C2FE7B68072B00F2C18101A252F891
:100C7C0023F000BFA10C00080B0D0008750D000837
:100C8C00DF0D0008490E0008B30E00081D0F000808
:100C9C00910F000800220421B94801F0A5FE0022A2
:100CAC000821B74801F0A0FE01224FF48061B4483E
:100CBC0001F09AFE01224FF40061B14801F094FE5C
:100CCC0001224FF48051AE4801F08EFE01224FF408
:100CDC000051AB4801F088FE01224FF48041A84836
:100CEC0001F082FE01224FF40041A54801F07CFE88
:100CFC0000224FF48071A14801F076FE78E10022C9
:100D0C0004219F4801F070FE002208219C4801F04C
:100D1C006BFE00224FF48061994801F065FE0122C0
:100D2C004FF40061964801F05FFE01224FF48051B0
:100D3C00934801F059FE01224FF40051904801F004
:100D4C0053FE01224FF480418D4801F04DFE0022EC
:100D5C004FF400418A4801F047FE00224FF4007125
:100D6C00864801F041FE43E101220421844801F050
:100D7C003BFE01220821824801F036FE00224FF48E
:100D8C0080617F4801F030FE00224FF400617C4806
:100D9C0001F02AFE01224FF48051794801F024FE23
:100DAC0001224FF40051764801F01EFE00224FF450
:100DBC008041734801F018FE00224FF40041704846
:100DCC0001F012FE00224FF480616C4801F00CFE21
:100DDC000EE1012204216A4801F006FE01220821DD
:100DEC00674801F001FE00224FF48061644801F075
:100DFC00FBFD00224FF40061614801F0F5FD01227A
:100E0C004FF480515E4801F0EFFD01224FF4005188
:100E1C005B4801F0E9FD00224FF48041584801F095
:100E2C00E3FD00224FF40041554801F0DDFD0022A6
:100E3C004FF40061514801F0D7FDD9E000220421A4
:100E4C004F4801F0D1FD002208214D4801F0CCFDA6
:100E5C0000224FF480614A4801F0C6FD00224FF495
:100E6C000061474801F0C0FD01224FF48051444815
:100E7C0001F0BAFD01224FF40051414801F0B4FDDC
:100E8C0000224FF480413E4801F0AEFD00224FF4A9
:100E9C0000413B4801F0A8FD00224FF48051374837
:100EAC0001F0A2FDA4E001220421354801F09CFDD3
:100EBC0001220821324801F097FD00224FF4806195
:100ECC002F4801F091FD00224FF400612C4801F0F5
:100EDC008BFD01224FF48051294801F085FD012240
:100EEC004FF40051264801F07FFD00224FF4804161
:100EFC00234801F079FD00224FF40041204801F015
:100F0C0073FD00224FF400511C4801F06DFD6FE0A1
:100F1C00012204211A4801F067FD0122082118481A
:100F2C0001F062FD00224FF48061154801F05CFD78
:100F3C0000224FF40061124801F056FD01224FF4DB
:100F4C0080510F4801F050FD01224FF400510C4824
:100F5C0001F04AFD00224FF48041094801F044FDA4
:100F6C0000224FF40041064801F03EFD00224FF4F0
:100F7C008041024801F038FD3AE000BF000C01400E
:100F8C0000080140012204211B4801F02DFD012223
:100F9C000821194801F028FD00224FF48061164801
:100FAC0001F022FD00224FF40061134801F01CFDFA
:100FBC0001224FF48051104801F016FD01224FF42C
:100FCC0000510D4801F010FD00224FF480410A48F9
:100FDC0001F00AFD00224FF40041074801F004FD26
:100FEC0000224FF40041054801F0FEFC00E000BF78
:100FFC0000BF0837BD4680BD00080140000C014011
:10100C0080B582B000AF786001224FF6FF71C748FF
:10101C0001F0EAFC7B68072B00F2C18101A252F8B7
:10102C0023F000BF51100008BB1000082511000868
:10103C008F110008F911000863120008CD12000886
:10104C004113000800220421B94801F0CDFC012213
:10105C000821B74801F0C8FC01224FF48061B44864
:10106C0001F0C2FC01224FF40061B14801F0BCFC5C
:10107C0001224FF48051AE4801F0B6FC01224FF42E
:10108C000051AB4801F0B0FC01224FF48041A8485C
:10109C0001F0AAFC00224FF40041A54801F0A4FC89
:1010AC0000224FF48071A14801F09EFC78E10022EF
:1010BC0004219F4801F098FC002208219C4801F073
:1010CC0093FC01224FF48061994801F08DFC0122C0
:1010DC004FF40061964801F087FC01224FF48051D7
:1010EC00934801F081FC01224FF40051904801F02B
:1010FC007BFC00224FF480418D4801F075FC0022EE
:10110C004FF400418A4801F06FFC00224FF400714B
:10111C00864801F069FC43E101220421844801F076
:10112C0063FC00220821824801F05EFC00224FF48F
:10113C0080617F4801F058FC01224FF400617C482B
:10114C0001F052FC01224FF48051794801F04CFC23
:10115C0000224FF40051764801F046FC00224FF477
:10116C008041734801F040FC01224FF4004170486B
:10117C0001F03AFC00224FF480616C4801F034FC21
:10118C000EE1012204216A4801F02EFC0022082104
:10119C00674801F029FC00224FF48061644801F09B
:1011AC0023FC01224FF40061614801F01DFC012277
:1011BC004FF480515E4801F017FC00224FF40051AF
:1011CC005B4801F011FC00224FF48041584801F0BB
:1011DC000BFC01224FF40041554801F005FC0022A4
:1011EC004FF40061514801F0FFFBD9E000220421CB
:1011FC004F4801F0F9FB002208214D4801F0F4FBA7
:10120C0000224FF480614A4801F0EEFB01224FF4BA
:10121C000061474801F0E8FB01224FF4805144483B
:10122C0001F0E2FB00224FF40051414801F0DCFBDD
:10123C0000224FF480413E4801F0D6FB00224FF4CF
:10124C0000413B4801F0D0FB00224FF4805137485D
:10125C0001F0CAFBA4E001220421354801F0C4FBD3
:10126C0000220821324801F0BFFB00224FF48061BC
:10127C002F4801F0B9FB01224FF400612C4801F01A
:10128C00B3FB01224FF48051294801F0ADFB002241
:10129C004FF40051264801F0A7FB00224FF4804187
:1012AC00234801F0A1FB01224FF40041204801F03A
:1012BC009BFB00224FF400511C4801F095FB6FE0A2
:1012CC00012204211A4801F08FFB00220821184842
:1012DC0001F08AFB00224FF48061154801F084FB79
:1012EC0001224FF40061124801F07EFB01224FF401
:1012FC0080510F4801F078FB00224FF400510C484C
:10130C0001F072FB00224FF48041094801F06CFBA4
:10131C0001224FF40041064801F066FB00224FF415
:10132C008041024801F060FB3AE000BF000C014034
:10133C0000080140012204211B4801F055FB00224A
:10134C000821194801F050FB00224FF48061164827
:10135C0001F04AFB01224FF40061134801F044FBF9
:10136C0001224FF48051104801F03EFB00224FF453
:10137C0000510D4801F038FB00224FF480410A481F
:10138C0001F032FB01224FF40041074801F02CFB25
:10139C0000224FF40041054801F026FB00E000BF9D
:1013AC0000BF0837BD4680BD00080140000C01405D
:1013BC0080B582B000AF786001224FF6FF71C7484C
:1013CC0001F012FB7B68072B00F2C18101A252F8DD
:1013DC0023F000BF011400086B140008D51400089A
:1013EC003F150008A9150008131600087D16000803
:1013FC00F116000801220421B94801F0F5FA012286
:10140C000821B74801F0F0FA01224FF48061B4488A
:10141C0001F0EAFA01224FF40061B14801F0E4FA5C
:10142C0001224FF48051AE4801F0DEFA01224FF454
:10143C000051AB4801F0D8FA00224FF48041A84883
:10144C0001F0D2FA00224FF40041A54801F0CCFA89
:10145C0000224FF48071A14801F0C6FA78E1002215
:10146C0004219F4801F0C0FA012208219C4801F098
:10147C00BBFA01224FF48061994801F0B5FA0122C0
:10148C004FF40061964801F0AFFA01224FF48051FD
:10149C00934801F0A9FA00224FF40051904801F052
:1014AC00A3FA00224FF480418D4801F09DFA0022EE
:1014BC004FF400418A4801F097FA00224FF4007172
:1014CC00864801F091FA43E100220421844801F09E
:1014DC008BFA00220821824801F086FA01224FF48F
:1014EC0080617F4801F080FA01224FF400617C4852
:1014FC0001F07AFA00224FF48051794801F074FA25
:10150C0000224FF40051764801F06EFA01224FF49C
:10151C008041734801F068FA01224FF40041704891
:10152C0001F062FA00224FF480616C4801F05CFA21
:10153C000EE1002204216A4801F056FA002208212B
:10154C00674801F051FA01224FF48061644801F0C0
:10155C004BFA01224FF40061614801F045FA002278
:10156C004FF480515E4801F03FFA00224FF40051D5
:10157C005B4801F039FA01224FF48041584801F0E0
:10158C0033FA01224FF40041554801F02DFA0022A4
:10159C004FF40061514801F027FAD9E000220421F0
:1015AC004F4801F021FA002208214D4801F01CFAA5
:1015BC0001224FF480614A4801F016FA01224FF4DF
:1015CC000061474801F010FA00224FF48051444862
:1015DC0001F00AFA00224FF40051414801F004FADC
:1015EC0000224FF480413E4801F0FEF900224FF4F6
:1015FC0000413B4801F0F8F900224FF48051374884
:10160C0001F0F2F9A4E000220421354801F0ECF9D4
:10161C0000220821324801F0E7F901224FF48061E1
:10162C002F4801F0E1F901224FF400612C4801F040
:10163C00DBF900224FF48051294801F0D5F9002242
:10164C004FF40051264801F0CFF901224FF48041AC
:10165C00234801F0C9F901224FF40041204801F060
:10166C00C3F900224FF400511C4801F0BDF96FE0A2
:10167C00002204211A4801F0B7F900220821184869
:10168C0001F0B2F901224FF48061154801F0ACF978
:10169C0001224FF40061124801F0A6F900224FF428
:1016AC0080510F4801F0A0F900224FF400510C4872
:1016BC0001F09AF901224FF48041094801F094F9A4
:1016CC0001224FF40041064801F08EF900224FF43C
:1016DC008041024801F088F93AE000BF000C01405B
:1016EC0000080140002204211B4801F07DF9002272
:1016FC000821194801F078F901224FF4806116484D
:10170C0001F072F901224FF40061134801F06CF9F9
:10171C0000224FF48051104801F066F900224FF47A
:10172C0000510D4801F060F901224FF480410A4844
:10173C0001F05AF901224FF40041074801F054F925
:10174C0000224FF40041054801F04EF900E000BFC3
:10175C0000BF0837BD4680BD00080140000C0140A9
:10176C0080B582B000AF786001224FF6FF71C74898
:10177C0001F03AF97B68072B00F2C18101A252F803
:10178C0023F000BFB11700081B18000885180008CB
:10179C00EF18000859190008C31900082D1A000881
:1017AC00A11A000801220421B94801F01DF90122F7
:1017BC000821B74801F018F901224FF48061B448B0
:1017CC0001F012F900224FF40061B14801F00CF95C
:1017DC0000224FF48051AE4801F006F901224FF47B
:1017EC000051AB4801F000F901224FF48041A848A8
:1017FC0001F0FAF801224FF40041A54801F0F4F889
:10180C0000224FF48071A14801F0EEF878E101223A
:10181C0004219F4801F0E8F8012208219C4801F0BE
:10182C00E3F800224FF48061994801F0DDF80022C2
:10183C004FF40061964801F0D7F800224FF4805124
:10184C00934801F0D1F800224FF40051904801F078
:10185C00CBF801224FF480418D4801F0C5F80122EC
:10186C004FF400418A4801F0BFF800224FF4007198
:10187C00864801F0B9F843E101220421844801F0C3
:10188C00B3F800220821824801F0AEF800224FF490
:10189C0080617F4801F0A8F801224FF400617C4878
:1018AC0001F0A2F801224FF48051794801F09CF824
:1018BC0000224FF40051764801F096F800224FF4C4
:1018CC008041734801F090F801224FF400417048B8
:1018DC0001F08AF800224FF480616C4801F084F822
:1018EC000EE1012204216A4801F07EF80022082151
:1018FC00674801F079F800224FF48061644801F0E8
:10190C0073F801224FF40061614801F06DF8012277
:10191C004FF480515E4801F067F800224FF40051FB
:10192C005B4801F061F800224FF48041584801F007
:10193C005BF801224FF40041554801F055F80022A4
:10194C004FF40061514801F04FF8D9E00022042116
:10195C004F4801F049F8012208214D4801F044F8A4
:10196C0001224FF480614A4801F03EF800224FF406
:10197C000061474801F038F800224FF48051444888
:10198C0001F032F800224FF40051414801F02CF8DC
:10199C0000224FF480413E4801F026F800224FF41B
:1019AC0000413B4801F020F800224FF480513748A9
:1019BC0001F01AF8A4E000220421354801F014F8D3
:1019CC0001220821324801F00FF801224FF4806106
:1019DC002F4801F009F800224FF400612C4801F067
:1019EC0003F800224FF48051294800F0FDFF01223A
:1019FC004FF40051264800F0F7FF01224FF48041CC
:101A0C00234800F0F1FF00224FF40041204800F081
:101A1C00EBFF00224FF400511C4800F0E5FF6FE093
:101A2C00002204211A4800F0DFFF01220821184887
:101A3C0000F0DAFF01224FF48061154800F0D4FF6A
:101A4C0000224FF40061124800F0CEFF00224FF448
:101A5C0080510F4800F0C8FF01224FF400510C4890
:101A6C0000F0C2FF01224FF48041094800F0BCFF96
:101A7C0000224FF40041064800F0B6FF00224FF45C
:101A8C008041024800F0B0FF3AE000BF000C01407A
:101A9C0000080140002204211B4800F0A5FF012290
:101AAC000821194800F0A0FF01224FF4806116486C
:101ABC0000F09AFF00224FF40061134800F094FFED
:101ACC0000224FF48051104800F08EFF01224FF499
:101ADC0000510D4800F088FF01224FF480410A4864
:101AEC0000F082FF00224FF40041074800F07CFF19
:101AFC0000224FF40041054800F076FF00E000BFE3
:101B0C0000BF0837BD4680BD00080140000C0140F5
:101B1C0080B582B000AF786001224FF6FF71C748E4
:101B2C0000F062FF7B68072B00F2C18101A252F822
:101B3C0023F000BF611B0008CB1B0008351C0008FC
:101B4C009F1C0008091D0008731D0008DD1D0008FE
:101B5C00511E000801220421B94800F045FF012262
:101B6C000821B74800F040FF01224FF48061B448CF
:101B7C0000F03AFF01224FF40061B14800F034FF4D
:101B8C0000224FF48051AE4800F02EFF00224FF49B
:101B9C000051AB4800F028FF01224FF48041A848C7
:101BAC0000F022FF01224FF40041A54800F01CFF79
:101BBC0000224FF48071A14800F016FF78E1012259
:101BCC0004219F4800F010FF012208219C4800F0DE
:101BDC000BFF01224FF48061994800F005FF0022B1
:101BEC004FF40061964800F0FFFE00224FF4805144
:101BFC00934800F0F9FE00224FF40051904800F099
:101C0C00F3FE00224FF480418D4800F0EDFE0122DE
:101C1C004FF400418A4800F0E7FE00224FF40071B7
:101C2C00864800F0E1FE43E101220421844800F0E3
:101C3C00DBFE01220821824800F0D6FE00224FF480
:101C4C0080617F4800F0D0FE00224FF400617C4898
:101C5C0000F0CAFE01224FF48051794800F0C4FE16
:101C6C0001224FF40051764800F0BEFE00224FF4E2
:101C7C008041734800F0B8FE00224FF400417048D8
:101C8C0000F0B2FE00224FF480616C4800F0ACFE14
:101C9C000EE1012204216A4800F0A6FE012208216F
:101CAC00674800F0A1FE00224FF48061644800F008
:101CBC009BFE00224FF40061614800F095FE01226A
:101CCC004FF480515E4800F08FFE01224FF400511A
:101CDC005B4800F089FE00224FF48041584800F028
:101CEC0083FE00224FF40041554800F07DFE002297
:101CFC004FF40061514800F077FED9E00122042135
:101D0C004F4800F071FE012208214D4800F06CFE96
:101D1C0000224FF480614A4800F066FE00224FF426
:101D2C000061474800F060FE00224FF480514448A7
:101D3C0000F05AFE00224FF40051414800F054FECE
:101D4C0000224FF480413E4800F04EFE00224FF43A
:101D5C0000413B4800F048FE00224FF480513748C8
:101D6C0000F042FEA4E001220421354800F03CFEC4
:101D7C0001220821324800F037FE00224FF4806126
:101D8C002F4800F031FE00224FF400612C4800F087
:101D9C002BFE01224FF48051294800F025FE012230
:101DAC004FF40051264800F01FFE00224FF48041F2
:101DBC00234800F019FE00224FF40041204800F0A7
:101DCC0013FE00224FF400511C4800F00DFE6FE092
:101DDC00012204211A4800F007FE012208211848AC
:101DEC0000F002FE00224FF48061154800F0FCFD6B
:101DFC0000224FF40061124800F0F6FD01224FF46E
:101E0C0080510F4800F0F0FD01224FF400510C48B6
:101E1C0000F0EAFD00224FF48041094800F0E4FD97
:101E2C0000224FF40041064800F0DEFD00224FF482
:101E3C008041024800F0D8FD3AE000BF000C0140A0
:101E4C0000080140012204211B4800F0CDFD0122B5
:101E5C000821194800F0C8FD00224FF48061164893
:101E6C0000F0C2FD00224FF40061134800F0BCFDED
:101E7C0001224FF48051104800F0B6FD01224FF4BE
:101E8C0000510D4800F0B0FD00224FF480410A488B
:101E9C0000F0AAFD00224FF40041074800F0A4FD19
:101EAC0000224FF40041054800F09EFD00E000BF09
:101EBC0000BF0837BD4680BD00080140000C014042
:101ECC0080B400AF00BFBD4680BC704780B582B007
:101EDC0000AF0021002000F0A1F90021012000F04A
:101EEC009DF91921022000F099F93221032000F00C
:101EFC0095F94B21042000F091F90021052000F008
:101F0C008DF90021062000F089F900237B60002365
:101F1C003B6000F07FFAFFF7D3FF00F091F800F080
:101F2C00CBF800F015F9424801F0BCF9414B1B68A5
:101F3C00012B07D16421002000F070F920213E48CC
:101F4C0000F06AFD3B4B9B69012BEFD1322106203F
:101F5C0000F064F93B68002B05DB3B68632B02DC6B
:101F6C007868FEF7EDF83B68632B05DD3B68C72B03
:101F7C0002DC7868FEF7BCFA3B68C72B06DD3B68D1
:101F8C00B3F5967F02DA7868FEF78AFC3B68B3F506
:101F9C00967F06DB3B68B3F5C87F02DA7868FEF7FC
:101FAC0057FE3B68B3F5C87F06DB3B68B3F5FA7F99
:101FBC0002DA7868FFF724F83B68B3F5FA7F06DBA2
:101FCC003B68B3F5167F02DA7868FFF7F1F93B68E6
:101FDC00B3F5167F06DB3B68B3F52F7F02DA786822
:101FEC00FFF7BEFB3B68B3F52F7F06DB3B68B3F511
:101FFC00487F02DA7868FFF78BFD7868FEF750FCB3
:10200C007B6801335A4203F0070302F0070258BF02
:10201C0053427B603B680133084A82FB03129111E7
:10202C00DA178A1AC82101FB02F29B1A3B607DE782
:10203C002800002098000020000801401F85EB516B
:10204C0080B590B000AF07F1180328220021184684
:10205C0001F0D8FC3B1D00221A605A609A60DA60CD
:10206C001A610223BB610123BB621023FB620023B4
:10207C007B6307F11803184600F0E8FC0346002BBD
:10208C0001D000F0C5F80F237B600023BB60002358
:10209C00FB6000233B6100237B613B1D0021184644
:1020AC0000F054FF0346002B01D000F0B1F800BF44
:1020BC004037BD4680BD000080B586B000AF07F14B
:1020CC00080300221A605A609A60DA603B460022CC
:1020DC001A605A601D4B4FF080421A601B4B41F640
:1020EC003F725A60194B00229A60184B0A22DA6030
:1020FC00164B00221A61154B00229A61134801F00D
:10210C0081F80346002B01D000F082F84FF4805385
:10211C00BB6007F1080319460C4801F0FFF90346B0
:10212C00002B01D000F074F800233B6000237B608F
:10213C003B461946054801F0D7FB0346002B01D05E
:10214C0000F066F800BF1837BD4680BD280000209F
:10215C0080B586B000AF07F1080300221A605A6000
:10216C009A60DA60224B9B69214A43F00403936125
:10217C001F4B9B6903F004037B607B681C4B9B69C2
:10218C001B4A43F008039361194B9B6903F0080346
:10219C003B603B6800224FF6FC71164800F024FCB3
:1021AC0000224FF67F71144800F01EFC4FF6FC73B2
:1021BC00BB600123FB6000233B6102237B6107F1C1
:1021CC00080319460B4800F095FA4FF67F73BB6075
:1021DC000123FB6000233B6102237B6107F10803B1
:1021EC001946054800F086FA00BF1837BD4680BD79
:1021FC000010024000080140000C014080B582B084
:10220C0000AF786000F022F800BF0837BD4680BDF3
:10221C0080B400AF72B600BFFEE7000080B483B09C
:10222C0000AF7860396007497B683A6841F8232031
:10223C00054A7B68002142F8231000BF0C37BD46CD
:10224C0080BC7047700000209800002080B483B0E0
:10225C0000AF00237B601CE0124A7B6852F82330ED
:10226C00002B13DB0F4A7B6852F823305A1E0D49A2
:10227C007B6841F823200B4A7B6852F82330002BF3
:10228C0004DC094A7B68012142F823107B68013386
:10229C007B607B68092BDFDD00BF00BF0C37BD46C0
:1022AC0080BC7047700000209800002080B485B07E
:1022BC0000AF154B9B69144A43F001039361124B19
:1022CC009B6903F00103BB60BB680F4BDB690E4AD3
:1022DC0043F08053D3610C4BDB6903F080537B607C
:1022EC007B680A4B5B68FB60FB6823F0E063FB6078
:1022FC00FB6843F08063FB60044AFB68536000BFDB
:10230C001437BD4680BC70470010024000000140ED
:10231C0080B584B000AF78607B681B68B3F1804FE8
:10232C0013D10C4BDB690B4A43F00103D361094B0E
:10233C00DB6903F00103FB60FB68002200211C2019
:10234C0000F0A1F91C2000F0BAF900BF1037BD460F
:10235C0080BD00BF0010024080B400AFFEE780B427
:10236C0000AFFEE780B400AFFEE780B400AFFEE73D
:10237C0080B400AFFEE780B400AF00BFBD4680BCA8
:10238C00704780B400AF00BFBD4680BC704780B4BE
:10239C0000AF00BFBD4680BC704780B500AF00F0F9
:1023AC007FF800BF80BD000080B500AF024800F090
:1023BC00C5FF00BF80BD00BF2800002080B400AF67
:1023CC0000BFBD4680BC7047FFF7F8FF0B480C49B7
:1023DC000C4A002302E0D458C4500433C4188C4275
:1023EC00F9D3094A094C002301E013600432A242DC
:1023FC00FBD301F0E3FAFFF769FD70470000002002
:10240C000C000020643A00080C000020C4000020DE
:10241C00FEE7000080B500AF084B1B68074A43F08D
:10242C0010031360032000F023F90F2000F008F8CC
:10243C00FFF73CFF0023184680BD00BF0020024080
:10244C0080B582B000AF7860124B1A68124B1B78C3
:10245C0019464FF47A73B3FBF1F3B2FBF3F318465E
:10246C0000F03BF90346002B01D001230EE07B6802
:10247C000F2B0AD8002279684FF0FF3000F003F9D7
:10248C00064A7B681360002300E0012318460837D6
:10249C00BD4680BD00000020080000200400002084
:1024AC0080B400AF054B1B781A46054B1B681344D0
:1024BC00034A136000BFBD4680BC70470800002073
:1024CC00C000002080B400AF024B1B681846BD460C
:1024DC0080BC7047C000002080B485B000AF78602D
:1024EC007B6803F00703FB600C4BDB68BB60BA68CE
:1024FC004FF6FF031340BB60FB681A02BB68134323
:10250C0043F0BF6343F40033BB60044ABB68D36041
:10251C0000BF1437BD4680BC704700BF00ED00E023
:10252C0080B400AF044BDB681B0A03F007031846AA
:10253C00BD4680BC704700BF00ED00E080B483B0A6
:10254C0000AF0346FB7197F90730002B0BDBFB79CF
:10255C0003F01F02064997F907305B09012000FAC6
:10256C0002F241F8232000BF0C37BD4680BC7047F7
:10257C0000E100E080B483B000AF03463960FB712A
:10258C0097F90730002B0ADB3B68DAB20C4997F954
:10259C0007301201D2B20B4483F800230AE03B68E7
:1025AC00DAB20849FB7903F00F03043B1201D2B2F3
:1025BC000B441A7600BF0C37BD4680BC704700BF79
:1025CC0000E100E000ED00E080B489B000AFF860FD
:1025DC00B9607A60FB6803F00703FB61FB69C3F128
:1025EC000703042B28BF0423BB61FB690433062BB0
:1025FC0002D9FB69033B00E000237B614FF0FF3203
:10260C00BB6902FA03F3DA43BB681A407B699A4050
:10261C004FF0FF317B6901FA03F3D9437B680B4020
:10262C00134318462437BD4680BC704780B582B032
:10263C0000AF78607B68013BB3F1807F01D301234D
:10264C000FE00A4A7B68013B53600F214FF0FF30CB
:10265C00FFF790FF054B00229A60044B07221A608B
:10266C00002318460837BD4680BD00BF10E000E0CF
:10267C0080B582B000AF78607868FFF72DFF00BF9F
:10268C000837BD4680BD80B586B000AF0346B96043
:10269C007A60FB7300237B61FFF742FF78617A68F5
:1026AC00B9687869FFF790FF024697F90F30114629
:1026BC001846FFF75FFF00BF1837BD4680BD80B5D9
:1026CC0082B000AF0346FB7197F907301846FFF74D
:1026DC0035FF00BF0837BD4680BD80B582B000AF66
:1026EC0078607868FFF7A2FF034618460837BD46A6
:1026FC0080BD000080B48BB000AF786039600023DF
:10270C007B6200233B6248E101227B6A02FA03F3FD
:10271C00FB613B681B68FA691340BB61BA69FB69D2
:10272C009A4240F037813B685B68A34A93425ED083
:10273C00A14A934275D8A14A934258D09F4A9342DA
:10274C006FD89F4A934252D09D4A934269D89D4A72
:10275C0093424CD09B4A934263D89B4A934246D0B7
:10276C00994A93425DD8122B2AD8122B59D801A220
:10277C0052F823F0FB270008D5270008E7270008AC
:10278C00292800082F2800082F2800082F280008C7
:10279C002F2800082F2800082F2800082F280008B1
:1027AC002F2800082F2800082F2800082F280008A1
:1027BC002F2800082F280008DD270008F127000823
:1027CC00824A934213D02CE03B68DB683B6229E0E1
:1027DC003B68DB6804333B6224E03B68DB6808330E
:1027EC003B621FE03B68DB680C333B621AE03B68E2
:1027FC009B68002B02D104233B6213E03B689B686F
:10280C00012B05D108233B627B68FA691A6109E048
:10281C0008233B627B68FA695A6103E000233B6240
:10282C0000E000BFBB69FF2B01D87B6801E07B682F
:10283C0004337B61BB69FF2B02D87B6A9B0002E0EF
:10284C007B6A083B9B003B617B691A680F213B69E3
:10285C0001FA03F3DB431A40396A3B6901FA03F3CB
:10286C001A437B691A603B685B6803F08053002B4A
:10287C0000F09080564B9B69554A43F001039361DD
:10288C00534B9B6903F00103BB60BB68514A7B6AE5
:10289C009B08023352F82330FB607B6A03F003037E
:1028AC009B000F2202FA03F3DB43FA681340FB6030
:1028BC007B68494A93420DD07B68484A934207D0C3
:1028CC007B68474A934201D1022304E0032302E0D0
:1028DC00012300E000237A6A02F003029200934085
:1028EC00FA681343FB603B497B6A9B080233FA6826
:1028FC0041F823203B685B6803F48013002B06D05F
:10290C00384B9A683749BB6913438B6006E0354BEB
:10291C009A68BB69DB43334913408B603B685B6847
:10292C0003F40013002B06D02E4BDA682D49BB693B
:10293C001343CB6006E02B4BDA68BB69DB432949B8
:10294C001340CB603B685B6803F40033002B06D06C
:10295C00244B5A682349BB6913434B6006E0214B57
:10296C005A68BB69DB431F4913404B603B685B688B
:10297C0003F48033002B06D01A4B1A681949BB6933
:10298C0013430B6006E0174B1A68BB69DB43154910
:10299C0013400B607B6A01337B623B681A687B6A6D
:1029AC0022FA03F3002B7FF4AFAE00BF00BF2C372D
:1029BC00BD4680BC704700BF0000321000003110D3
:1029CC000000221000002110000012100000111055
:1029DC00001002400000014000080140000C0140C2
:1029EC00001001400004014080B483B000AF786057
:1029FC000B467B8013467B707B78002B03D07A8848
:102A0C007B681A6103E07B881A047B681A6100BF3B
:102A1C000C37BD4680BC704780B485B000AF786081
:102A2C000B467B807B68DB68FB607A88FB68134015
:102A3C001A04FB68D9437B880B401A437B681A61E4
:102A4C0000BF1437BD4680BC7047000080B586B00F
:102A5C0000AF78607B68002B01D101236CE27B68AE
:102A6C001B6803F00103002B00F08780924B5B681E
:102A7C0003F00C03042B0CD08F4B5B6803F00C039E
:102A8C00082B12D18C4B5B6803F48033B3F5803F79
:102A9C000BD1894B1B6803F40033002B6CD07B6883
:102AAC005B68002B68D1012346E27B685B68B3F559
:102ABC00803F06D1804B1B687F4A43F48033136000
:102ACC002EE07B685B68002B0CD17B4B1B687A4A31
:102ADC0023F480331360784B1B68774A23F48023EC
:102AEC0013601DE07B685B68B3F5A02F0CD1724BB3
:102AFC001B68714A43F4802313606F4B1B686E4A4A
:102B0C0043F4803313600BE06B4B1B686A4A23F46D
:102B1C0080331360684B1B68674A23F4802313606F
:102B2C007B685B68002B13D0FFF7CCFC386108E0A6
:102B3C00FFF7C8FC02463B69D31A642B01D9032367
:102B4C00FAE15D4B1B6803F40033002BF0D014E06A
:102B5C00FFF7B8FC386108E0FFF7B4FC02463B69AC
:102B6C00D31A642B01D90323E6E1534B1B6803F4FE
:102B7C000033002BF0D100E000BF7B681B6803F032
:102B8C000203002B63D04C4B5B6803F00C03002B4F
:102B9C000BD0494B5B6803F00C03082B1CD1464B44
:102BAC005B6803F48033002B16D1434B1B6803F096
:102BBC000203002B05D07B681B69012B01D001237C
:102BCC00BAE13D4B1B6823F0F8027B685B69DB00C4
:102BDC00394913430B603AE07B681B69002B20D00A
:102BEC00364B01221A60FFF76DFC386108E0FFF7E5
:102BFC0069FC02463B69D31A022B01D903239BE1E2
:102C0C002D4B1B6803F00203002BF0D02A4B1B68E2
:102C1C0023F0F8027B685B69DB00274913430B60E8
:102C2C0015E0264B00221A60FFF74CFC386108E0D7
:102C3C00FFF748FC02463B69D31A022B01D9032348
:102C4C007AE11D4B1B6803F00203002BF0D17B686B
:102C5C001B6803F00803002B3AD07B689B69002BA0
:102C6C0019D0174B01221A60FFF72CFC386108E0D1
:102C7C00FFF728FC02463B69D31A022B01D9032328
:102C8C005AE10D4B5B6A03F00203002BF0D00120DC
:102C9C0000F09AFA1CE00A4B00221A60FFF712FCB3
:102CAC0038610FE0FFF70EFC02463B69D31A022B8A
:102CBC0008D9032340E100BF00100240000042424B
:102CCC00800442429E4B5B6A03F00203002BE9D165
:102CDC007B681B6803F00403002B00F0A680002324
:102CEC00FB75974BDB6903F08053002B0DD1944B94
:102CFC00DB69934A43F08053D361914BDB6903F05A
:102D0C008053BB60BB680123FB758E4B1B6803F4BF
:102D1C008073002B18D18B4B1B688A4A43F4807349
:102D2C001360FFF7CFFB386108E0FFF7CBFB0246DF
:102D3C003B69D31A642B01D90323FDE0814B1B683B
:102D4C0003F48073002BF0D07B68DB68012B06D179
:102D5C007B4B1B6A7A4A43F0010313622DE07B68BC
:102D6C00DB68002B0CD1764B1B6A754A23F00103F0
:102D7C001362734B1B6A724A23F0040313621CE048
:102D8C007B68DB68052B0CD16D4B1B6A6C4A43F0DE
:102D9C00040313626A4B1B6A694A43F00103136212
:102DAC000BE0674B1B6A664A23F001031362644B0A
:102DBC001B6A634A23F0040313627B68DB68002BF5
:102DCC0015D0FFF77FFB38610AE0FFF77BFB02466B
:102DDC003B69D31A41F28832934201D90323ABE009
:102DEC00574B1B6A03F00203002BEED014E0FFF7E5
:102DFC0069FB38610AE0FFF765FB02463B69D31AB1
:102E0C0041F28832934201D9032395E04C4B1B6A63
:102E1C0003F00203002BEED1FB7D012B05D1484BB7
:102E2C00DB69474A23F08053D3617B68DB69002B55
:102E3C0000F08180424B5B6803F00C03082B61D0DF
:102E4C007B68DB69022B46D13F4B00221A60FFF7EF
:102E5C0039FB386108E0FFF735FB02463B69D31AB2
:102E6C00022B01D9032367E0354B1B6803F0007379
:102E7C00002BF0D17B681B6AB3F5803F08D1304B37
:102E8C005B6823F400327B689B682D4913434B60CD
:102E9C002B4B5B6823F474127B68196A7B685B6A42
:102EAC000B43274913434B60274B01221A60FFF752
:102EBC0009FB386108E0FFF705FB02463B69D31AB2
:102ECC00022B01D9032337E01D4B1B6803F0007361
:102EDC00002BF0D02FE01C4B00221A60FFF7F2FA07
:102EEC00386108E0FFF7EEFA02463B69D31A022B71
:102EFC0001D9032320E0124B1B6803F00073002B55
:102F0C00F0D118E07B68DB69012B01D1012313E0C0
:102F1C000B4B5B68FB60FB6803F480327B681B6ABD
:102F2C009A4206D1FB6803F470127B685B6A9A4282
:102F3C0001D0012300E0002318461837BD4680BDA0
:102F4C0000100240007000406000424280B584B026
:102F5C0000AF786039607B68002B01D10123D0E091
:102F6C006A4B1B6803F007033A689A4210D9674B07
:102F7C001B6823F0070265493B6813430B60634BE6
:102F8C001B6803F007033A689A4201D00123B8E0AA
:102F9C007B681B6803F00203002B20D07B681B6846
:102FAC0003F00403002B05D0594B5B68584A43F4DB
:102FBC00E06353607B681B6803F00803002B05D0AB
:102FCC00534B5B68524A43F460535360504B5B68FD
:102FDC0023F0F0027B689B684D4913434B607B6880
:102FEC001B6803F00103002B40D07B685B68012B4E
:102FFC0007D1474B1B6803F40033002B15D1012379
:10300C007FE07B685B68022B07D1414B1B6803F0A8
:10301C000073002B09D1012373E03D4B1B6803F0B7
:10302C000203002B01D101236BE0394B5B6823F0C9
:10303C0003027B685B68364913434B60FFF742FA27
:10304C00F8600AE0FFF73EFA0246FB68D31A41F239
:10305C008832934201D9032353E02D4B5B6803F074
:10306C000C027B685B689B009A42EBD1274B1B6878
:10307C0003F007033A689A4210D2244B1B6823F0E2
:10308C00070222493B6813430B60204B1B6803F07B
:10309C0007033A689A4201D0012332E07B681B682F
:1030AC0003F00403002B08D0194B5B6823F4E06297
:1030BC007B68DB68164913434B607B681B6803F025
:1030CC000803002B09D0124B5B6823F460527B6819
:1030DC001B69DB000E4913434B6000F021F80246DC
:1030EC000B4B5B681B0903F00F030A49CB5C22FAFC
:1030FC0003F3094A1360094B1B681846FFF7A0F944
:10310C00002318461037BD4680BD00BF002002408A
:10311C0000100240383A0008000000200400002093
:10312C0080B487B000AF0023FB600023BB6000239A
:10313C007B6100237B6000233B611E4B5B68FB6063
:10314C00FB6803F00C03042B02D0082B03D027E000
:10315C00194B3B6127E0FB689B0C03F00F03174AEC
:10316C00D35C7B60FB6803F48033002B10D0114BD5
:10317C005B685B0C03F00103114AD35CBB607B689A
:10318C000D4A02FB03F2BB68B2FBF3F37B6104E074
:10319C007B680C4A02FB03F37B617B693B6102E0B9
:1031AC00054B3B6100BF3B6918461C37BD4680BCD4
:1031BC00704700BF0010024000127A00483A000825
:1031CC00583A000800093D0080B485B000AF786023
:1031DC000A4B1B680A4AA2FB03235B0A7A6802FBB0
:1031EC0003F3FB6000BFFB685A1EFA60002BF9D199
:1031FC0000BF00BF1437BD4680BC704700000020E4
:10320C00D34D621080B582B000AF78607B68002B24
:10321C0001D1012341E07B6893F83D30DBB2002BF8
:10322C0006D17B68002283F83C207868FFF770F8A1
:10323C007B68022283F83D207B681A687B68043324
:10324C001946104600F056FA7B68012283F8462096
:10325C007B68012283F83E207B68012283F83F20A3
:10326C007B68012283F840207B68012283F841208F
:10327C007B68012283F842207B68012283F843207B
:10328C007B68012283F844207B68012283F8452067
:10329C007B68012283F83D20002318460837BD4681
:1032AC0080BD000080B485B000AF78607B6893F877
:1032BC003D30DBB2012B01D0012335E07B680222CB
:1032CC0083F83D207B681B68DA687B681B6842F0DA
:1032DC000102DA607B681B68164A934209D07B684E
:1032EC001B68B3F1804F04D07B681B68124A934271
:1032FC0011D17B681B689B6803F00703FB60FB68BC
:10330C00062B10D07B681B681A687B681B6842F020
:10331C0001021A6007E07B681B681A687B681B68EF
:10332C0042F001021A60002318461437BD4680BCD7
:10333C00704700BF002C01400004004080B584B0F1
:10334C0000AF78607B681B68DB68FB607B681B6880
:10335C001B69BB60BB6803F00203002B20D0FB6829
:10336C0003F00203002B1BD07B681B686FF002027A
:10337C001A617B6801221A777B681B689B6903F0D2
:10338C000303002B03D0786800F098F905E0786807
:10339C0000F08BF9786800F09AF97B6800221A77B4
:1033AC00BB6803F00403002B20D0FB6803F004037C
:1033BC00002B1BD07B681B686FF004021A617B68C2
:1033CC0002221A777B681B689B6903F44073002BFD
:1033DC0003D0786800F072F905E0786800F065F9C0
:1033EC00786800F074F97B6800221A77BB6803F0E8
:1033FC000803002B20D0FB6803F00803002B1BD024
:10340C007B681B686FF008021A617B6804221A77CC
:10341C007B681B68DB6903F00303002B03D078681F
:10342C0000F04CF905E0786800F03FF9786800F09E
:10343C004EF97B6800221A77BB6803F01003002B4F
:10344C0020D0FB6803F01003002B1BD07B681B689B
:10345C006FF010021A617B6808221A777B681B6870
:10346C00DB6903F44073002B03D0786800F026F975
:10347C0005E0786800F019F9786800F028F97B68A5
:10348C0000221A77BB6803F00103002B0CD0FB68F9
:10349C0003F00103002B07D07B681B686FF001025F
:1034AC001A617868FEF7AAFEBB6803F08003002B54
:1034BC000CD0FB6803F08003002B07D07B681B68E3
:1034CC006FF080021A61786800F06FFABB6803F045
:1034DC004003002B0CD0FB6803F04003002B07D0FB
:1034EC007B681B686FF040021A61786800F0F8F88E
:1034FC00BB6803F02003002B0CD0FB6803F0200307
:10350C00002B07D07B681B686FF020021A6178686B
:10351C0000F042FA00BF1037BD4680BD80B584B0C4
:10352C0000AF786039600023FB737B6893F83C3004
:10353C00012B01D10223B4E07B68012283F83C20EB
:10354C007B68022283F83D207B681B689B68BB600C
:10355C00BB6823F07703BB60BB6823F47F43BB607D
:10356C007B681B68BA689A603B681B68B3F5005FA0
:10357C003ED0B3F5005F00F28780B3F5805F00F0BA
:10358C008680B3F5805F7FD8702B1AD0702B7BD8D8
:10359C00602B50D0602B77D8502B3CD0502B73D84D
:1035AC00402B58D0402B6FD8302B64D0302B6BD89D
:1035BC00202B60D0202B67D8002B5CD0102B5AD03E
:1035CC0062E07B6818683B6899683B685A683B689E
:1035DC00DB6800F06AF97B681B689B68BB60BB68A2
:1035EC0043F07703BB607B681B68BA689A604FE056
:1035FC007B6818683B6899683B685A683B68DB686D
:10360C0000F053F97B681B689A687B681B6842F46E
:10361C0080429A603CE07B6818683B6859683B685C
:10362C00DB681A4600F0CAF87B681B685021184604
:10363C0000F021F92CE07B6818683B6859683B68FE
:10364C00DB681A4600F0E8F87B681B6860211846B6
:10365C0000F011F91CE07B6818683B6859683B68FE
:10366C00DB681A4600F0AAF87B681B6840211846F4
:10367C0000F001F90CE07B681A683B681B6819467E
:10368C00104600F0F8F803E00123FB7300E000BFE4
:10369C007B68012283F83D207B68002283F83C2064
:1036AC00FB7B18461037BD4680BD80B483B000AF9D
:1036BC00786000BF0C37BD4680BC704780B483B0C7
:1036CC0000AF786000BF0C37BD4680BC704780B43B
:1036DC0083B000AF786000BF0C37BD4680BC70472C
:1036EC0080B483B000AF786000BF0C37BD4680BC9F
:1036FC007047000080B485B000AF786039607B689B
:10370C001B68FB607B682B4A934207D07B68B3F144
:10371C00804F03D07B68284A934208D1FB6823F082
:10372C007003FB603B685B68FA681343FB607B6863
:10373C00204A934207D07B68B3F1804F03D07B685B
:10374C001D4A934208D1FB6823F44073FB603B682D
:10375C00DB68FA681343FB60FB6823F080023B686C
:10376C005B691343FB607B68FA681A603B689A6874
:10377C007B68DA623B681A687B689A627B680D4AE0
:10378C00934203D13B681A697B681A637B680122F8
:10379C005A617B681B6903F00103002B05D07B6821
:1037AC001B6923F001027B681A6100BF1437BD4608
:1037BC0080BC7047002C01400004004080B487B0EE
:1037CC0000AFF860B9607A60FB681B6A7B61FB68CC
:1037DC001B6A23F00102FB681A62FB689B693B6160
:1037EC003B6923F0F0033B617B681B013A6913438F
:1037FC003B617B6923F00A037B617A69BB681343E5
:10380C007B61FB683A699A61FB687A691A6200BF4E
:10381C001C37BD4680BC704780B487B000AFF860E1
:10382C00B9607A60FB681B6A7B61FB681B6A23F0DA
:10383C001002FB681A62FB689B693B613B6923F4CD
:10384C0070433B617B681B033A6913433B617B69A3
:10385C0023F0A0037B61BB681B017A6913437B6176
:10386C00FB683A699A61FB687A691A6200BF1C3777
:10387C00BD4680BC704780B485B000AF78603960BD
:10388C007B689B68FB60FB6823F07003FB603A6805
:10389C00FB68134343F00703FB607B68FA689A608C
:1038AC0000BF1437BD4680BC704780B487B000AFF2
:1038BC00F860B9607A603B60FB689B687B617B69F0
:1038CC0023F47F437B613B681A027B681A43BB6815
:1038DC0013437A6913437B61FB687A699A6000BF72
:1038EC001C37BD4680BC704780B485B000AF786093
:1038FC0039607B6893F83C30012B01D1022341E005
:10390C007B68012283F83C207B68022283F83D20EF
:10391C007B681B685B68FB607B681B689B68BB6093
:10392C00FB6823F07003FB603B681B68FA68134369
:10393C00FB607B681B68FA685A607B681B68144ADA
:10394C00934209D07B681B68B3F1804F04D07B682D
:10395C001B68104A93420CD1BB6823F08003BB60F8
:10396C003B685B68BA681343BB607B681B68BA68CA
:10397C009A607B68012283F83D207B68002283F8E3
:10398C003C20002318461437BD4680BC704700BF4E
:10399C00002C01400004004080B483B000AF78607C
:1039AC0000BF0C37BD4680BC704780B483B000AFFD
:1039BC00786000BF0C37BD4680BC704770B50026E0
:1039CC000C4D0D4C641BA410A64209D100F022F83A
:1039DC0000260A4D0A4C641BA410A64205D170BDEA
:1039EC0055F8043B98470136EEE755F8043B9847E9
:1039FC000136F2E75C3A00085C3A00085C3A0008D1
:103A0C00603A000803460244934200D1704703F821
:103A1C00011BF9E7F8B500BFF8BC08BC9E4670471F
:0C3A2C00F8B500BFF8BC08BC9E4670470F
:103A38000000000000000000010203040607080956
:103A480002030405060708090A0B0C0D0E0F1010D7
:043A58000102000067
:043A5C00310100082C
:043A60000D0100084C
:0C3A640000127A001000000001000000B9
:04000005080023D5F7
:00000001FF
