:020000040800F2
:1000000000280020B9230008492300084F230008D6
:10001000552300085B23000861230008000000004E
:10002000000000000000000000000000672300083E
:1000300073230008000000007F2300088B230008C2
:1000400001240008012400080124000801240008FC
:1000500001240008012400080124000801240008EC
:1000600001240008012400080124000801240008DC
:1000700001240008012400080124000801240008CC
:1000800001240008012400080124000801240008BC
:1000900001240008012400080124000801240008AC
:1000A000012400080124000801240008012400089C
:1000B0009923000801240008000000000124000822
:1000C00001240008000000000000000001240008D6
:1000D00000000000012400080124000800000000C6
:1000E0000124000801240008012400080000000089
:1000F0000000000000000000000000000000000000
:0C01000000000000000000005FF808F1A3
:10010C0010B5054C237833B9044B13B10448AFF345
:10011C0000800123237010BD0C00002000000000A3
:10012C00043A000808B5034B1BB103490348AFF36D
:10013C00008008BD0000000010000020043A0008F8
:10014C0080B582B000AF786001224FF6FF71C748CE
:10015C0002F03CFC7B68072B00F2C18101A252F833
:10016C0023F000BF91010008FB01000865020008A4
:10017C00CF02000839030008A30300080D0400088F
:10018C008104000801220421B94802F01FFC01225D
:10019C000821B74802F01AFC01224FF48061B448E0
:1001AC0002F014FC00224FF40061B14802F00EFC86
:1001BC0000224FF48051AE4802F008FC01224FF4AB
:1001CC000051AB4802F002FC01224FF48041A848D8
:1001DC0002F0FCFB01224FF40041A54802F0F6FBB3
:1001EC0000224FF48071A14802F0F0FB78E101226B
:1001FC0004219F4802F0EAFB012208219C4802F0EE
:10020C00E5FB00224FF48061994802F0DFFB0022ED
:10021C004FF40061964802F0D9FB00224FF4805154
:10022C00934802F0D3FB00224FF40051904802F0A7
:10023C00CDFB01224FF480418D4802F0C7FB012217
:10024C004FF400418A4802F0C1FB00224FF40071C8
:10025C00864802F0BBFB43E101220421844802F0F2
:10026C00B5FB00220821824802F0B0FB00224FF4BB
:10027C0080617F4802F0AAFB01224FF400617C48A8
:10028C0002F0A4FB01224FF48051794802F09EFB4E
:10029C0000224FF40051764802F098FB00224FF4F4
:1002AC008041734802F092FB01224FF400417048E8
:1002BC0002F08CFB00224FF480616C4802F086FB4C
:1002CC000EE1012204216A4802F080FB0022082181
:1002DC00674802F07BFB00224FF48061644802F017
:1002EC0075FB01224FF40061614802F06FFB0122A3
:1002FC004FF480515E4802F069FB00224FF400512C
:10030C005B4802F063FB00224FF48041584802F036
:10031C005DFB01224FF40041554802F057FB0022CF
:10032C004FF40061514802F051FBD9E00122042145
:10033C004F4802F04BFB002208214D4802F046FBCF
:10034C0000224FF480614A4802F040FB00224FF437
:10035C000061474802F03AFB00224FF480514448B8
:10036C0002F034FB00224FF40051414802F02EFB06
:10037C0000224FF480413E4802F028FB01224FF44A
:10038C0000413B4802F022FB00224FF480513748D9
:10039C0002F01CFBA4E001220421354802F016FBFC
:1003AC0000220821324802F011FB00224FF4806138
:1003BC002F4802F00BFB01224FF400612C4802F095
:1003CC0005FB01224FF48051294802F0FFFA00226C
:1003DC004FF40051264802F0F9FA00224FF4804104
:1003EC00234802F0F3FA01224FF40041204802F0B6
:1003FC00EDFA00224FF400511C4802F0E7FA6FE0CE
:10040C00012204211A4802F0E1FA002208211848BE
:10041C0002F0DCFA00224FF48061154802F0D6FAA3
:10042C0001224FF40061124802F0D0FA01224FF47D
:10043C0080510F4802F0CAFA00224FF400510C48C8
:10044C0002F0C4FA00224FF48041094802F0BEFACF
:10045C0001224FF40041064802F0B8FA00224FF492
:10046C008041024802F0B2FA3AE000BF000C0140B1
:10047C0000080140012204211B4802F0A7FA0022C7
:10048C000821194802F0A2FA00224FF480611648A4
:10049C0002F09CFA01224FF40061134802F096FA24
:1004AC0001224FF48051104802F090FA00224FF4D0
:1004BC0000510D4802F08AFA00224FF480410A489C
:1004CC0002F084FA01224FF40041074802F07EFA50
:1004DC0000224FF40041054802F078FA00E000BF1A
:1004EC0000BF0837BD4680BD00080140000C01402C
:1004FC0080B582B000AF786001224FF6FF71C7481B
:10050C0002F064FA7B68072B00F2C18101A252F859
:10051C0023F000BF41050008AB05000815060008D4
:10052C007F060008E906000853070008BD0700080D
:10053C003108000801220421B94802F047FA0122CF
:10054C000821B74802F042FA00224FF48061B44807
:10055C0002F03CFA00224FF40061B14802F036FA86
:10056C0001224FF48051AE4802F030FA01224FF4D0
:10057C000051AB4802F02AFA01224FF48041A848FE
:10058C0002F024FA01224FF40041A54802F01EFAB1
:10059C0000224FF48071A14802F018FA78E1012290
:1005AC0004219F4802F012FA002208219C4802F014
:1005BC000DFA00224FF48061994802F007FA0022EC
:1005CC004FF40061964802F001FA00224FF480517A
:1005DC00934802F0FBF901224FF40051904802F0CD
:1005EC00F5F901224FF480418D4802F0EFF9012218
:1005FC004FF400418A4802F0E9F900224FF40071EF
:10060C00864802F0E3F943E100220421844802F019
:10061C00DDF900220821824802F0D8F901224FF4BA
:10062C0080617F4802F0D2F901224FF400617C48CE
:10063C0002F0CCF900224FF48051794802F0C6F94F
:10064C0000224FF40051764802F0C0F901224FF419
:10065C008041734802F0BAF901224FF4004170480E
:10066C0002F0B4F900224FF480616C4802F0AEF94C
:10067C000EE1002204216A4802F0A8F900220821A8
:10068C00674802F0A3F901224FF48061644802F03C
:10069C009DF901224FF40061614802F097F90022A4
:1006AC004FF480515E4802F091F900224FF4005152
:1006BC005B4802F08BF901224FF48041584802F05C
:1006CC0085F901224FF40041554802F07FF90022D0
:1006DC004FF40061514802F079F9D9E0002204216D
:1006EC004F4802F073F9002208214D4802F06EF9D0
:1006FC0000224FF480614A4802F068F900224FF45E
:10070C000061474802F062F900224FF480514448DE
:10071C0002F05CF900224FF40051414802F056F906
:10072C0001224FF480413E4802F050F901224FF46F
:10073C0000413B4802F04AF900224FF480513748FF
:10074C0002F044F9A4E000220421354802F03EF9FD
:10075C0000220821324802F039F901224FF480615D
:10076C002F4802F033F901224FF400612C4802F0BB
:10077C002DF900224FF48051294802F027F900226C
:10078C004FF40051264802F021F901224FF4804128
:10079C00234802F01BF901224FF40041204802F0DB
:1007AC0015F900224FF400511C4802F00FF96FE0CC
:1007BC00002204211A4802F009F9002208211848E5
:1007CC0002F004F901224FF48061154802F0FEF8A2
:1007DC0001224FF40061124802F0F8F800224FF4A5
:1007EC0080510F4802F0F2F800224FF400510C48EF
:1007FC0002F0ECF801224FF48041094802F0E6F8CF
:10080C0001224FF40041064802F0E0F800224FF4B8
:10081C008041024802F0DAF83AE000BF000C0140D7
:10082C0000080140002204211B4802F0CFF80022EE
:10083C000821194802F0CAF801224FF480611648C9
:10084C0002F0C4F801224FF40061134802F0BEF824
:10085C0000224FF48051104802F0B8F800224FF4F7
:10086C0000510D4802F0B2F801224FF480410A48C1
:10087C0002F0ACF801224FF40041074802F0A6F850
:10088C0000224FF40041054802F0A0F800E000BF40
:10089C0000BF0837BD4680BD00080140000C014078
:1008AC0080B582B000AF786001224FF6FF71C74867
:1008BC0002F08CF87B68072B00F2C18101A252F880
:1008CC0023F000BFF10800085B090008C509000807
:1008DC002F0A0008990A0008030B00086D0B00088A
:1008EC00E10B000801220421B94802F06FF8002244
:1008FC000821B74802F06AF800224FF48061B4482E
:10090C0002F064F801224FF40061B14802F05EF885
:10091C0001224FF48051AE4802F058F801224FF4F6
:10092C000051AB4802F052F801224FF48041A84824
:10093C0002F04CF801224FF40041A54802F046F8B1
:10094C0000224FF48071A14802F040F878E10022B7
:10095C0004219F4802F03AF8002208219C4802F03A
:10096C0035F800224FF48061994802F02FF80022EC
:10097C004FF40061964802F029F801224FF480519F
:10098C00934802F023F801224FF40051904802F0F2
:10099C001DF801224FF480418D4802F017F8012216
:1009AC004FF400418A4802F011F800224FF4007114
:1009BC00864802F00BF843E100220421844802F03F
:1009CC0005F801220821824802F000F801224FF4B8
:1009DC0080617F4801F0FAFF00224FF400617C48EF
:1009EC0001F0F4FF00224FF48051794801F0EEFF42
:1009FC0001224FF40051764801F0E8FF01224FF438
:100A0C008041734801F0E2FF00224FF4004170482E
:100A1C0001F0DCFF00224FF480616C4801F0D6FF3E
:100A2C000EE1002204216A4801F0D0FF01220821C6
:100A3C00674801F0CBFF01224FF48061644801F05C
:100A4C00C5FF00224FF40061614801F0BFFF002296
:100A5C004FF480515E4801F0B9FF01224FF4005170
:100A6C005B4801F0B3FF01224FF48041584801F07C
:100A7C00ADFF00224FF40041554801F0A7FF0022C2
:100A8C004FF40061514801F0A1FFD9E0002204218C
:100A9C004F4801F09BFF002208214D4801F096FFC2
:100AAC0000224FF480614A4801F090FF00224FF47D
:100ABC000061474801F08AFF00224FF480514448FE
:100ACC0001F084FF01224FF40051414801F07EFFF8
:100ADC0001224FF480413E4801F078FF00224FF490
:100AEC0000413B4801F072FF00224FF4805137481F
:100AFC0001F06CFFA4E000220421354801F066FFF0
:100B0C0001220821324801F061FF01224FF480617B
:100B1C002F4801F05BFF00224FF400612C4801F0DC
:100B2C0055FF00224FF48051294801F04FFF01225C
:100B3C004FF40051264801F049FF01224FF4804147
:100B4C00234801F043FF00224FF40041204801F0FC
:100B5C003DFF00224FF400511C4801F037FF6FE0BD
:100B6C00002204211A4801F031FF01220821184803
:100B7C0001F02CFF01224FF48061154801F026FF93
:100B8C0000224FF40061124801F020FF00224FF4C4
:100B9C0080510F4801F01AFF01224FF400510C480C
:100BAC0001F014FF01224FF48041094801F00EFFBF
:100BBC0000224FF40041064801F008FF00224FF4D8
:100BCC008041024801F002FF3AE000BF000C0140F6
:100BDC0000080140002204211B4801F0F7FE01220D
:100BEC000821194801F0F2FE01224FF480611648E9
:100BFC0001F0ECFE00224FF40061134801F0E6FE18
:100C0C0000224FF48051104801F0E0FE01224FF415
:100C1C0000510D4801F0DAFE01224FF480410A48E0
:100C2C0001F0D4FE00224FF40041074801F0CEFE43
:100C3C0000224FF40041054801F0C8FE00E000BF5F
:100C4C0000BF0837BD4680BD00080140000C0140C4
:100C5C0080B582B000AF786001224FF6FF71C748B3
:100C6C0001F0B4FE7B68072B00F2C18101A252F89F
:100C7C0023F000BFA10C00080B0D0008750D000837
:100C8C00DF0D0008490E0008B30E00081D0F000808
:100C9C00910F000800220421B94801F097FE0022B0
:100CAC000821B74801F092FE01224FF48061B4484C
:100CBC0001F08CFE01224FF40061B14801F086FE78
:100CCC0001224FF48051AE4801F080FE01224FF416
:100CDC000051AB4801F07AFE01224FF48041A84844
:100CEC0001F074FE01224FF40041A54801F06EFEA4
:100CFC0000224FF48071A14801F068FE78E10022D7
:100D0C0004219F4801F062FE002208219C4801F05A
:100D1C005DFE00224FF48061994801F057FE0122DC
:100D2C004FF40061964801F051FE01224FF48051BE
:100D3C00934801F04BFE01224FF40051904801F012
:100D4C0045FE01224FF480418D4801F03FFE002208
:100D5C004FF400418A4801F039FE00224FF4007133
:100D6C00864801F033FE43E101220421844801F05E
:100D7C002DFE01220821824801F028FE00224FF4AA
:100D8C0080617F4801F022FE00224FF400617C4814
:100D9C0001F01CFE01224FF48051794801F016FE3F
:100DAC0001224FF40051764801F010FE00224FF45E
:100DBC008041734801F00AFE00224FF40041704854
:100DCC0001F004FE00224FF480616C4801F0FEFD3E
:100DDC000EE1012204216A4801F0F8FD01220821EC
:100DEC00674801F0F3FD00224FF48061644801F084
:100DFC00EDFD00224FF40061614801F0E7FD012296
:100E0C004FF480515E4801F0E1FD01224FF4005196
:100E1C005B4801F0DBFD00224FF48041584801F0A3
:100E2C00D5FD00224FF40041554801F0CFFD0022C2
:100E3C004FF40061514801F0C9FDD9E000220421B2
:100E4C004F4801F0C3FD002208214D4801F0BEFDC2
:100E5C0000224FF480614A4801F0B8FD00224FF4A3
:100E6C000061474801F0B2FD01224FF48051444823
:100E7C0001F0ACFD01224FF40051414801F0A6FDF8
:100E8C0000224FF480413E4801F0A0FD00224FF4B7
:100E9C0000413B4801F09AFD00224FF48051374845
:100EAC0001F094FDA4E001220421354801F08EFDEF
:100EBC0001220821324801F089FD00224FF48061A3
:100ECC002F4801F083FD00224FF400612C4801F003
:100EDC007DFD01224FF48051294801F077FD01225C
:100EEC004FF40051264801F071FD00224FF480416F
:100EFC00234801F06BFD00224FF40041204801F023
:100F0C0065FD00224FF400511C4801F05FFD6FE0BD
:100F1C00012204211A4801F059FD01220821184828
:100F2C0001F054FD00224FF48061154801F04EFD94
:100F3C0000224FF40061124801F048FD01224FF4E9
:100F4C0080510F4801F042FD01224FF400510C4832
:100F5C0001F03CFD00224FF48041094801F036FDC0
:100F6C0000224FF40041064801F030FD00224FF4FE
:100F7C008041024801F02AFD3AE000BF000C01401C
:100F8C0000080140012204211B4801F01FFD012231
:100F9C000821194801F01AFD00224FF4806116480F
:100FAC0001F014FD00224FF40061134801F00EFD16
:100FBC0001224FF48051104801F008FD01224FF43A
:100FCC0000510D4801F002FD00224FF480410A4807
:100FDC0001F0FCFC00224FF40041074801F0F6FC44
:100FEC0000224FF40041054801F0F0FC00E000BF86
:100FFC0000BF0837BD4680BD00080140000C014011
:10100C0080B582B000AF786001224FF6FF71C748FF
:10101C0001F0DCFC7B68072B00F2C18101A252F8C5
:10102C0023F000BF51100008BB1000082511000868
:10103C008F110008F911000863120008CD12000886
:10104C004113000800220421B94801F0BFFC012221
:10105C000821B74801F0BAFC01224FF48061B44872
:10106C0001F0B4FC01224FF40061B14801F0AEFC78
:10107C0001224FF48051AE4801F0A8FC01224FF43C
:10108C000051AB4801F0A2FC01224FF48041A8486A
:10109C0001F09CFC00224FF40041A54801F096FCA5
:1010AC0000224FF48071A14801F090FC78E10022FD
:1010BC0004219F4801F08AFC002208219C4801F081
:1010CC0085FC01224FF48061994801F07FFC0122DC
:1010DC004FF40061964801F079FC01224FF48051E5
:1010EC00934801F073FC01224FF40051904801F039
:1010FC006DFC00224FF480418D4801F067FC00220A
:10110C004FF400418A4801F061FC00224FF4007159
:10111C00864801F05BFC43E101220421844801F084
:10112C0055FC00220821824801F050FC00224FF4AB
:10113C0080617F4801F04AFC01224FF400617C4839
:10114C0001F044FC01224FF48051794801F03EFC3F
:10115C0000224FF40051764801F038FC00224FF485
:10116C008041734801F032FC01224FF40041704879
:10117C0001F02CFC00224FF480616C4801F026FC3D
:10118C000EE1012204216A4801F020FC0022082112
:10119C00674801F01BFC00224FF48061644801F0A9
:1011AC0015FC01224FF40061614801F00FFC012293
:1011BC004FF480515E4801F009FC00224FF40051BD
:1011CC005B4801F003FC00224FF48041584801F0C9
:1011DC00FDFB01224FF40041554801F0F7FB0022C2
:1011EC004FF40061514801F0F1FBD9E000220421D9
:1011FC004F4801F0EBFB002208214D4801F0E6FBC3
:10120C0000224FF480614A4801F0E0FB01224FF4C8
:10121C000061474801F0DAFB01224FF48051444849
:10122C0001F0D4FB00224FF40051414801F0CEFBF9
:10123C0000224FF480413E4801F0C8FB00224FF4DD
:10124C0000413B4801F0C2FB00224FF4805137486B
:10125C0001F0BCFBA4E001220421354801F0B6FBEF
:10126C0000220821324801F0B1FB00224FF48061CA
:10127C002F4801F0ABFB01224FF400612C4801F028
:10128C00A5FB01224FF48051294801F09FFB00225D
:10129C004FF40051264801F099FB00224FF4804195
:1012AC00234801F093FB01224FF40041204801F048
:1012BC008DFB00224FF400511C4801F087FB6FE0BE
:1012CC00012204211A4801F081FB00220821184850
:1012DC0001F07CFB00224FF48061154801F076FB95
:1012EC0001224FF40061124801F070FB01224FF40F
:1012FC0080510F4801F06AFB00224FF400510C485A
:10130C0001F064FB00224FF48041094801F05EFBC0
:10131C0001224FF40041064801F058FB00224FF423
:10132C008041024801F052FB3AE000BF000C014042
:10133C0000080140012204211B4801F047FB002258
:10134C000821194801F042FB00224FF48061164835
:10135C0001F03CFB01224FF40061134801F036FB15
:10136C0001224FF48051104801F030FB00224FF461
:10137C0000510D4801F02AFB00224FF480410A482D
:10138C0001F024FB01224FF40041074801F01EFB41
:10139C0000224FF40041054801F018FB00E000BFAB
:1013AC0000BF0837BD4680BD00080140000C01405D
:1013BC0080B582B000AF786001224FF6FF71C7484C
:1013CC0001F004FB7B68072B00F2C18101A252F8EB
:1013DC0023F000BF011400086B140008D51400089A
:1013EC003F150008A9150008131600087D16000803
:1013FC00F116000801220421B94801F0E7FA012294
:10140C000821B74801F0E2FA01224FF48061B44898
:10141C0001F0DCFA01224FF40061B14801F0D6FA78
:10142C0001224FF48051AE4801F0D0FA01224FF462
:10143C000051AB4801F0CAFA00224FF48041A84891
:10144C0001F0C4FA00224FF40041A54801F0BEFAA5
:10145C0000224FF48071A14801F0B8FA78E1002223
:10146C0004219F4801F0B2FA012208219C4801F0A6
:10147C00ADFA01224FF48061994801F0A7FA0122DC
:10148C004FF40061964801F0A1FA01224FF480510B
:10149C00934801F09BFA00224FF40051904801F060
:1014AC0095FA00224FF480418D4801F08FFA00220A
:1014BC004FF400418A4801F089FA00224FF4007180
:1014CC00864801F083FA43E100220421844801F0AC
:1014DC007DFA00220821824801F078FA01224FF4AB
:1014EC0080617F4801F072FA01224FF400617C4860
:1014FC0001F06CFA00224FF48051794801F066FA41
:10150C0000224FF40051764801F060FA01224FF4AA
:10151C008041734801F05AFA01224FF4004170489F
:10152C0001F054FA00224FF480616C4801F04EFA3D
:10153C000EE1002204216A4801F048FA0022082139
:10154C00674801F043FA01224FF48061644801F0CE
:10155C003DFA01224FF40061614801F037FA002294
:10156C004FF480515E4801F031FA00224FF40051E3
:10157C005B4801F02BFA01224FF48041584801F0EE
:10158C0025FA01224FF40041554801F01FFA0022C0
:10159C004FF40061514801F019FAD9E000220421FE
:1015AC004F4801F013FA002208214D4801F00EFAC1
:1015BC0001224FF480614A4801F008FA01224FF4ED
:1015CC000061474801F002FA00224FF48051444870
:1015DC0001F0FCF900224FF40051414801F0F6F9FA
:1015EC0000224FF480413E4801F0F0F900224FF404
:1015FC0000413B4801F0EAF900224FF48051374892
:10160C0001F0E4F9A4E000220421354801F0DEF9F0
:10161C0000220821324801F0D9F901224FF48061EF
:10162C002F4801F0D3F901224FF400612C4801F04E
:10163C00CDF900224FF48051294801F0C7F900225E
:10164C004FF40051264801F0C1F901224FF48041BA
:10165C00234801F0BBF901224FF40041204801F06E
:10166C00B5F900224FF400511C4801F0AFF96FE0BE
:10167C00002204211A4801F0A9F900220821184877
:10168C0001F0A4F901224FF48061154801F09EF994
:10169C0001224FF40061124801F098F900224FF436
:1016AC0080510F4801F092F900224FF400510C4880
:1016BC0001F08CF901224FF48041094801F086F9C0
:1016CC0001224FF40041064801F080F900224FF44A
:1016DC008041024801F07AF93AE000BF000C014069
:1016EC0000080140002204211B4801F06FF9002280
:1016FC000821194801F06AF901224FF4806116485B
:10170C0001F064F901224FF40061134801F05EF915
:10171C0000224FF48051104801F058F900224FF488
:10172C0000510D4801F052F901224FF480410A4852
:10173C0001F04CF901224FF40041074801F046F941
:10174C0000224FF40041054801F040F900E000BFD1
:10175C0000BF0837BD4680BD00080140000C0140A9
:10176C0080B582B000AF786001224FF6FF71C74898
:10177C0001F02CF97B68072B00F2C18101A252F811
:10178C0023F000BFB11700081B18000885180008CB
:10179C00EF18000859190008C31900082D1A000881
:1017AC00A11A000801220421B94801F00FF9012205
:1017BC000821B74801F00AF901224FF48061B448BE
:1017CC0001F004F901224FF40061B14801F0FEF878
:1017DC0001224FF48051AE4801F0F8F800224FF48A
:1017EC000051AB4801F0F2F800224FF48041A848B8
:1017FC0001F0ECF801224FF40041A54801F0E6F8A5
:10180C0000224FF48071A14801F0E0F878E1012248
:10181C0004219F4801F0DAF8012208219C4801F0CC
:10182C00D5F801224FF48061994801F0CFF80122DC
:10183C004FF40061964801F0C9F800224FF4805132
:10184C00934801F0C3F800224FF40051904801F086
:10185C00BDF800224FF480418D4801F0B7F800220A
:10186C004FF400418A4801F0B1F800224FF40071A6
:10187C00864801F0ABF843E100220421844801F0D2
:10188C00A5F801220821824801F0A0F801224FF4AA
:10189C0080617F4801F09AF800224FF400617C4887
:1018AC0001F094F800224FF48051794801F08EF841
:1018BC0001224FF40051764801F088F801224FF4D0
:1018CC008041734801F082F800224FF400417048C7
:1018DC0001F07CF800224FF480616C4801F076F83E
:1018EC000EE1002204216A4801F070F8012208215F
:1018FC00674801F06BF801224FF48061644801F0F5
:10190C0065F800224FF40061614801F05FF8002295
:10191C004FF480515E4801F059F801224FF4005108
:10192C005B4801F053F801224FF48041584801F014
:10193C004DF800224FF40041554801F047F80022C1
:10194C004FF40061514801F041F8D9E00022042124
:10195C004F4801F03BF8012208214D4801F036F8C0
:10196C0001224FF480614A4801F030F800224FF414
:10197C000061474801F02AF800224FF48051444896
:10198C0001F024F800224FF40051414801F01EF8F8
:10199C0000224FF480413E4801F018F800224FF429
:1019AC0000413B4801F012F800224FF480513748B7
:1019BC0001F00CF8A4E000220421354801F006F8EF
:1019CC0001220821324801F001F801224FF4806114
:1019DC002F4800F0FBFF00224FF400612C4800F070
:1019EC00F5FF00224FF48051294800F0EFFF01224F
:1019FC004FF40051264800F0E9FF01224FF48041DA
:101A0C00234800F0E3FF00224FF40041204800F08F
:101A1C00DDFF00224FF400511C4800F0D7FF6FE0AF
:101A2C00002204211A4800F0D1FF01220821184895
:101A3C0000F0CCFF01224FF48061154800F0C6FF86
:101A4C0000224FF40061124800F0C0FF00224FF456
:101A5C0080510F4800F0BAFF01224FF400510C489E
:101A6C0000F0B4FF01224FF48041094800F0AEFFB2
:101A7C0000224FF40041064800F0A8FF00224FF46A
:101A8C008041024800F0A2FF3AE000BF000C014088
:101A9C0000080140002204211B4800F097FF01229E
:101AAC000821194800F092FF01224FF4806116487A
:101ABC0000F08CFF00224FF40061134800F086FF09
:101ACC0000224FF48051104800F080FF01224FF4A7
:101ADC0000510D4800F07AFF01224FF480410A4872
:101AEC0000F074FF00224FF40041074800F06EFF35
:101AFC0000224FF40041054800F068FF00E000BFF1
:101B0C0000BF0837BD4680BD00080140000C0140F5
:101B1C0080B582B000AF786001224FF6FF71C748E4
:101B2C0000F054FF7B68072B00F2C18101A252F830
:101B3C0023F000BF611B0008CB1B0008351C0008FC
:101B4C009F1C0008091D0008731D0008DD1D0008FE
:101B5C00511E000801220421B94800F037FF012270
:101B6C000821B74800F032FF01224FF48061B448DD
:101B7C0000F02CFF01224FF40061B14800F026FF69
:101B8C0000224FF48051AE4800F020FF00224FF4A9
:101B9C000051AB4800F01AFF01224FF48041A848D5
:101BAC0000F014FF01224FF40041A54800F00EFF95
:101BBC0000224FF48071A14800F008FF78E1012267
:101BCC0004219F4800F002FF012208219C4800F0EC
:101BDC00FDFE01224FF48061994800F0F7FE0022CF
:101BEC004FF40061964800F0F1FE00224FF4805152
:101BFC00934800F0EBFE00224FF40051904800F0A7
:101C0C00E5FE00224FF480418D4800F0DFFE0122FA
:101C1C004FF400418A4800F0D9FE00224FF40071C5
:101C2C00864800F0D3FE43E101220421844800F0F1
:101C3C00CDFE01220821824800F0C8FE00224FF49C
:101C4C0080617F4800F0C2FE00224FF400617C48A6
:101C5C0000F0BCFE01224FF48051794800F0B6FE32
:101C6C0001224FF40051764800F0B0FE00224FF4F0
:101C7C008041734800F0AAFE00224FF400417048E6
:101C8C0000F0A4FE00224FF480616C4800F09EFE30
:101C9C000EE1012204216A4800F098FE012208217D
:101CAC00674800F093FE00224FF48061644800F016
:101CBC008DFE00224FF40061614800F087FE012286
:101CCC004FF480515E4800F081FE01224FF4005128
:101CDC005B4800F07BFE00224FF48041584800F036
:101CEC0075FE00224FF40041554800F06FFE0022B3
:101CFC004FF40061514800F069FED9E00122042143
:101D0C004F4800F063FE012208214D4800F05EFEB2
:101D1C0000224FF480614A4800F058FE00224FF434
:101D2C000061474800F052FE00224FF480514448B5
:101D3C0000F04CFE00224FF40051414800F046FEEA
:101D4C0000224FF480413E4800F040FE00224FF448
:101D5C0000413B4800F03AFE00224FF480513748D6
:101D6C0000F034FEA4E001220421354800F02EFEE0
:101D7C0001220821324800F029FE00224FF4806134
:101D8C002F4800F023FE00224FF400612C4800F095
:101D9C001DFE01224FF48051294800F017FE01224C
:101DAC004FF40051264800F011FE00224FF4804100
:101DBC00234800F00BFE00224FF40041204800F0B5
:101DCC0005FE00224FF400511C4800F0FFFD6FE0AF
:101DDC00012204211A4800F0F9FD012208211848BB
:101DEC0000F0F4FD00224FF48061154800F0EEFD88
:101DFC0000224FF40061124800F0E8FD01224FF47C
:101E0C0080510F4800F0E2FD01224FF400510C48C4
:101E1C0000F0DCFD00224FF48041094800F0D6FDB3
:101E2C0000224FF40041064800F0D0FD00224FF490
:101E3C008041024800F0CAFD3AE000BF000C0140AE
:101E4C0000080140012204211B4800F0BFFD0122C3
:101E5C000821194800F0BAFD00224FF480611648A1
:101E6C0000F0B4FD00224FF40061134800F0AEFD09
:101E7C0001224FF48051104800F0A8FD01224FF4CC
:101E8C0000510D4800F0A2FD00224FF480410A4899
:101E9C0000F09CFD00224FF40041074800F096FD35
:101EAC0000224FF40041054800F090FD00E000BF17
:101EBC0000BF0837BD4680BD00080140000C014042
:101ECC0080B400AF00BFBD4680BC704780B582B007
:101EDC0000AF0021002000F093F90021012000F058
:101EEC008FF91921022000F08BF93221032000F028
:101EFC0087F94B21042000F083F90021052000F024
:101F0C007FF90021062000F07BF900237B60002381
:101F1C003B6000F071FAFFF7D3FF00F083F800F09C
:101F2C00BDF800F007F93B4801F0AEF93A4B1B68DD
:101F3C00012B07D16421002000F062F920213748E1
:101F4C0000F05CFD344B9B69012BEFD10121062085
:101F5C0000F056F93B68002B05DB3B68182B02DCC4
:101F6C007868FEF7EDF83B68182B05DD3B68312BE4
:101F7C0002DC7868FEF7BCFA3B68312B05DD3B6868
:101F8C004A2B02DC7868FEF78BFC3B684A2B05DD9C
:101F9C003B68632B02DC7868FEF75AFE3B68632BC8
:101FAC0005DD3B687C2B02DC7868FFF729F83B6881
:101FBC007C2B05DD3B68952B02DC7868FFF7F8F984
:101FCC003B68952B05DD3B68AE2B02DC7868FFF790
:101FDC00C7FB3B68AE2B05DD3B68C72B02DC786882
:101FEC00FFF796FD7B6801335A4203F0070302F0BA
:101FFC00070258BF53427B603B680133084A82FB9F
:10200C0003129111DA178A1AC82101FB02F29B1AEA
:10201C003B608BE72800002098000020000801405E
:10202C001F85EB5180B590B000AF07F11803282243
:10203C000021184601F0D8FC3B1D00221A605A60A2
:10204C009A60DA601A610223BB610123BB62102320
:10205C00FB6200237B6307F11803184600F0E8FCD1
:10206C000346002B01D000F0C5F80F237B60002342
:10207C00BB600023FB6000233B6100237B613B1DA5
:10208C000021184600F054FF0346002B01D000F04D
:10209C00B1F800BF4037BD4680BD000080B586B0AA
:1020AC0000AF07F1080300221A605A609A60DA60E8
:1020BC003B4600221A605A601D4B4FF080421A605A
:1020CC001B4B41F63F725A60194B00229A60184B19
:1020DC000A22DA60164B00221A61154B00229A6113
:1020EC00134801F081F80346002B01D000F082F870
:1020FC004FF48053BB6007F1080319460C4801F0FC
:10210C00FFF90346002B01D000F074F800233B606C
:10211C0000237B603B461946054801F0D7FB03467C
:10212C00002B01D000F066F800BF1837BD4680BD0B
:10213C002800002080B586B000AF07F1080300220C
:10214C001A605A609A60DA60224B9B69214A43F00C
:10215C00040393611F4B9B6903F004037B607B6852
:10216C001C4B9B691B4A43F008039361194B9B69F9
:10217C0003F008033B603B6800224FF6FC711648E5
:10218C0000F024FC00224FF67F71144800F01EFC76
:10219C004FF6FC73BB600123FB6000233B61022301
:1021AC007B6107F1080319460B4800F095FA4FF6CE
:1021BC007F73BB600123FB6000233B6102237B61C7
:1021CC0007F108031946054800F086FA00BF1837D6
:1021DC00BD4680BD0010024000080140000C0140CB
:1021EC0080B582B000AF786000F022F800BF0837ED
:1021FC00BD4680BD80B400AF72B600BFFEE70000E4
:10220C0080B483B000AF7860396007497B683A6866
:10221C0041F82320054A7B68002142F8231000BFB7
:10222C000C37BD4680BC7047700000209800002021
:10223C0080B483B000AF00237B601CE0124A7B6843
:10224C0052F82330002B13DB0F4A7B6852F82330F3
:10225C005A1E0D497B6841F823200B4A7B6852F8C3
:10226C002330002B04DC094A7B68012142F823103F
:10227C007B6801337B607B68092BDFDD00BF00BF0F
:10228C000C37BD4680BC70477000002098000020C1
:10229C0080B485B000AF154B9B69144A43F0010321
:1022AC009361124B9B6903F00103BB60BB680F4B3E
:1022BC00DB690E4A43F08053D3610C4BDB6903F0AE
:1022CC0080537B607B680A4B5B68FB60FB6823F088
:1022DC00E063FB60FB6843F08063FB60044AFB68CF
:1022EC00536000BF1437BD4680BC704700100240DD
:1022FC000000014080B584B000AF78607B681B683B
:10230C00B3F1804F13D10C4BDB690B4A43F0010343
:10231C00D361094BDB6903F00103FB60FB6800220E
:10232C0000211C2000F0A1F91C2000F0BAF900BF1C
:10233C001037BD4680BD00BF0010024080B400AF16
:10234C00FEE780B400AFFEE780B400AFFEE780B4D8
:10235C0000AFFEE780B400AFFEE780B400AF00BF73
:10236C00BD4680BC704780B400AF00BFBD4680BC8A
:10237C00704780B400AF00BFBD4680BC704780B5CD
:10238C0000AF00F07FF800BF80BD000080B500AF4B
:10239C00024800F0C5FF00BF80BD00BF2800002030
:1023AC0080B400AF00BFBD4680BC7047FFF7F8FF9C
:1023BC000B480C490C4A002302E0D458C450043397
:1023CC00C4188C42F9D3094A094C002301E013606C
:1023DC000432A242FBD301F0E3FAFFF777FD70471A
:1023EC00000000200C000020483A00080C000020DF
:1023FC00C4000020FEE7000080B500AF084B1B684E
:10240C00074A43F010031360032000F023F90F2058
:10241C0000F008F8FFF73CFF0023184680BD00BF12
:10242C000020024080B582B000AF7860124B1A6871
:10243C00124B1B7819464FF47A73B3FBF1F3B2FBD2
:10244C00F3F3184600F03BF90346002B01D00123AF
:10245C000EE07B680F2B0AD8002279684FF0FF3012
:10246C0000F003F9064A7B681360002300E00123A7
:10247C0018460837BD4680BD00000020080000202B
:10248C000400002080B400AF054B1B781A46054BA6
:10249C001B681344034A136000BFBD4680BC7047E1
:1024AC0008000020C000002080B400AF024B1B6865
:1024BC001846BD4680BC7047C000002080B485B073
:1024CC0000AF78607B6803F00703FB600C4BDB68A4
:1024DC00BB60BA684FF6FF031340BB60FB681A027F
:1024EC00BB68134343F0BF6343F40033BB60044A3F
:1024FC00BB68D36000BF1437BD4680BC704700BFBB
:10250C0000ED00E080B400AF044BDB681B0A03F065
:10251C0007031846BD4680BC704700BF00ED00E0C5
:10252C0080B483B000AF0346FB7197F90730002BE2
:10253C000BDBFB7903F01F02064997F907305B09A7
:10254C00012000FA02F241F8232000BF0C37BD46EF
:10255C0080BC704700E100E080B483B000AF03465C
:10256C003960FB7197F90730002B0ADB3B68DAB254
:10257C000C4997F907301201D2B20B4483F80023AF
:10258C000AE03B68DAB20849FB7903F00F03043B1D
:10259C001201D2B20B441A7600BF0C37BD4680BC78
:1025AC00704700BF00E100E000ED00E080B489B0AE
:1025BC0000AFF860B9607A60FB6803F00703FB6159
:1025CC00FB69C3F10703042B28BF0423BB61FB6920
:1025DC000433062B02D9FB69033B00E000237B612B
:1025EC004FF0FF32BB6902FA03F3DA43BB681A40BF
:1025FC007B699A404FF0FF317B6901FA03F3D943B1
:10260C007B680B40134318462437BD4680BC70478B
:10261C0080B582B000AF78607B68013BB3F1807FFE
:10262C0001D301230FE00A4A7B68013B53600F2161
:10263C004FF0FF30FFF790FF054B00229A60044BE0
:10264C0007221A60002318460837BD4680BD00BF1C
:10265C0010E000E080B582B000AF78607868FFF7DA
:10266C002DFF00BF0837BD4680BD80B586B000AFDA
:10267C000346B9607A60FB7300237B61FFF742FF6E
:10268C0078617A68B9687869FFF790FF024697F924
:10269C000F3011461846FFF75FFF00BF1837BD46D5
:1026AC0080BD80B582B000AF0346FB7197F907304F
:1026BC001846FFF735FF00BF0837BD4680BD80B513
:1026CC0082B000AF78607868FFF7A2FF0346184627
:1026DC000837BD4680BD000080B48BB000AF786079
:1026EC00396000237B6200233B6248E101227B6A54
:1026FC0002FA03F3FB613B681B68FA691340BB6188
:10270C00BA69FB699A4240F037813B685B68A34A1F
:10271C0093425ED0A14A934275D8A14A934258D0B5
:10272C009F4A93426FD89F4A934252D09D4A9342FC
:10273C0069D89D4A93424CD09B4A934263D89B4A9A
:10274C00934246D0994A93425DD8122B2AD8122B29
:10275C0059D801A252F823F0DF270008B927000846
:10276C00CB2700080D2800081328000813280008A0
:10277C001328000813280008132800081328000841
:10278C001328000813280008132800081328000831
:10279C00132800081328000813280008C127000874
:1027AC00D5270008824A934213D02CE03B68DB68A3
:1027BC003B6229E03B68DB6804333B6224E03B6806
:1027CC00DB6808333B621FE03B68DB680C333B6221
:1027DC001AE03B689B68002B02D104233B6213E098
:1027EC003B689B68012B05D108233B627B68FA6927
:1027FC001A6109E008233B627B68FA695A6103E0BD
:10280C0000233B6200E000BFBB69FF2B01D87B6853
:10281C0001E07B6804337B61BB69FF2B02D87B6AC8
:10282C009B0002E07B6A083B9B003B617B691A685A
:10283C000F213B6901FA03F3DB431A40396A3B6908
:10284C0001FA03F31A437B691A603B685B6803F077
:10285C008053002B00F09080564B9B69554A43F0F7
:10286C0001039361534B9B6903F00103BB60BB688D
:10287C00514A7B6A9B08023352F82330FB607B6A17
:10288C0003F003039B000F2202FA03F3DB43FA6805
:10289C001340FB607B68494A93420DD07B68484AE1
:1028AC00934207D07B68474A934201D1022304E04C
:1028BC00032302E0012300E000237A6A02F0030202
:1028CC0092009340FA681343FB603B497B6A9B0878
:1028DC000233FA6841F823203B685B6803F48013E9
:1028EC00002B06D0384B9A683749BB6913438B6071
:1028FC0006E0354B9A68BB69DB43334913408B6068
:10290C003B685B6803F40013002B06D02E4BDA688F
:10291C002D49BB691343CB6006E02B4BDA68BB69CE
:10292C00DB4329491340CB603B685B6803F40033FD
:10293C00002B06D0244B5A682349BB6913434B60C8
:10294C0006E0214B5A68BB69DB431F4913404B60BF
:10295C003B685B6803F48033002B06D01A4B1A6873
:10296C001949BB6913430B6006E0174B1A68BB6926
:10297C00DB43154913400B607B6A01337B623B6878
:10298C001A687B6A22FA03F3002B7FF4AFAE00BF08
:10299C0000BF2C37BD4680BC704700BF0000321012
:1029AC000000311000002210000021100000121055
:1029BC00000011100010024000000140000801400E
:1029CC00000C0140001001400004014080B483B0B1
:1029DC0000AF78600B467B8013467B707B78002BB6
:1029EC0003D07A887B681A6103E07B881A047B68C1
:1029FC001A6100BF0C37BD4680BC704780B485B0EF
:102A0C0000AF78600B467B807B68DB68FB607A8864
:102A1C00FB6813401A04FB68D9437B880B401A43AC
:102A2C007B681A6100BF1437BD4680BC704700003C
:102A3C0080B586B000AF78607B68002B01D1012394
:102A4C006CE27B681B6803F00103002B00F08780AD
:102A5C00924B5B6803F00C03042B0CD08F4B5B6820
:102A6C0003F00C03082B12D18C4B5B6803F48033FE
:102A7C00B3F5803F0BD1894B1B6803F40033002B5B
:102A8C006CD07B685B68002B68D1012346E27B68C5
:102A9C005B68B3F5803F06D1804B1B687F4A43F4DB
:102AAC00803313602EE07B685B68002B0CD17B4B72
:102ABC001B687A4A23F480331360784B1B68774A7F
:102ACC0023F4802313601DE07B685B68B3F5A02FB3
:102ADC000CD1724B1B68714A43F4802313606F4B0B
:102AEC001B686E4A43F4803313600BE06B4B1B681E
:102AFC006A4A23F480331360684B1B68674A23F4DB
:102B0C00802313607B685B68002B13D0FFF7CCFC31
:102B1C00386108E0FFF7C8FC02463B69D31A642B06
:102B2C0001D90323FAE15D4B1B6803F40033002B3E
:102B3C00F0D014E0FFF7B8FC386108E0FFF7B4FC04
:102B4C0002463B69D31A642B01D90323E6E1534BAC
:102B5C001B6803F40033002BF0D100E000BF7B684E
:102B6C001B6803F00203002B63D04C4B5B6803F033
:102B7C000C03002B0BD0494B5B6803F00C03082BA8
:102B8C001CD1464B5B6803F48033002B16D1434BAE
:102B9C001B6803F00203002B05D07B681B69012B1B
:102BAC0001D00123BAE13D4B1B6823F0F8027B688E
:102BBC005B69DB00394913430B603AE07B681B69A6
:102BCC00002B20D0364B01221A60FFF76DFC3861C8
:102BDC0008E0FFF769FC02463B69D31A022B01D9C6
:102BEC0003239BE12D4B1B6803F00203002BF0D059
:102BFC002A4B1B6823F0F8027B685B69DB002749D2
:102C0C0013430B6015E0264B00221A60FFF74CFCB7
:102C1C00386108E0FFF748FC02463B69D31A022BE7
:102C2C0001D903237AE11D4B1B6803F00203002B2F
:102C3C00F0D17B681B6803F00803002B3AD07B684B
:102C4C009B69002B19D0174B01221A60FFF72CFC43
:102C5C00386108E0FFF728FC02463B69D31A022BC7
:102C6C0001D903235AE10D4B5B6A03F00203002BDD
:102C7C00F0D0012000F09AFA1CE00A4B00221A60F6
:102C8C00FFF712FC38610FE0FFF70EFC02463B69C0
:102C9C00D31A022B08D9032340E100BF00100240D5
:102CAC0000004242800442429E4B5B6A03F00203E6
:102CBC00002BE9D17B681B6803F00403002B00F0A8
:102CCC00A6800023FB75974BDB6903F08053002B28
:102CDC000DD1944BDB69934A43F08053D361914BF4
:102CEC00DB6903F08053BB60BB680123FB758E4B23
:102CFC001B6803F48073002B18D18B4B1B688A4A1A
:102D0C0043F480731360FFF7CFFB386108E0FFF7E3
:102D1C00CBFB02463B69D31A642B01D90323FDE09C
:102D2C00814B1B6803F48073002BF0D07B68DB684D
:102D3C00012B06D17B4B1B6A7A4A43F001031362C9
:102D4C002DE07B68DB68002B0CD1764B1B6A754A37
:102D5C0023F001031362734B1B6A724A23F00403C2
:102D6C0013621CE07B68DB68052B0CD16D4B1B6A76
:102D7C006C4A43F0040313626A4B1B6A694A43F0C2
:102D8C00010313620BE0674B1B6A664A23F00103D5
:102D9C001362644B1B6A634A23F0040313627B685F
:102DAC00DB68002B15D0FFF77FFB38610AE0FFF7DB
:102DBC007BFB02463B69D31A41F28832934201D91C
:102DCC000323ABE0574B1B6A03F00203002BEED03E
:102DDC0014E0FFF769FB38610AE0FFF765FB024678
:102DEC003B69D31A41F28832934201D9032395E00F
:102DFC004C4B1B6A03F00203002BEED1FB7D012B25
:102E0C0005D1484BDB69474A23F08053D3617B687B
:102E1C00DB69002B00F08180424B5B6803F00C03F4
:102E2C00082B61D07B68DB69022B46D13F4B00221B
:102E3C001A60FFF739FB386108E0FFF735FB0246F3
:102E4C003B69D31A022B01D9032367E0354B1B686E
:102E5C0003F00073002BF0D17B681B6AB3F5803F45
:102E6C0008D1304B5B6823F400327B689B682D499A
:102E7C0013434B602B4B5B6823F474127B68196A09
:102E8C007B685B6A0B43274913434B60274B01223A
:102E9C001A60FFF709FB386108E0FFF705FB0246F3
:102EAC003B69D31A022B01D9032337E01D4B1B6856
:102EBC0003F00073002BF0D02FE01C4B00221A60A3
:102ECC00FFF7F2FA386108E0FFF7EEFA02463B69C9
:102EDC00D31A022B01D9032320E0124B1B6803F0F9
:102EEC000073002BF0D118E07B68DB69012B01D15A
:102EFC00012313E00B4B5B68FB60FB6803F480322F
:102F0C007B681B6A9A4206D1FB6803F470127B68DB
:102F1C005B6A9A4201D0012300E00023184618375F
:102F2C00BD4680BD0010024000700040600042426F
:102F3C0080B584B000AF786039607B68002B01D11C
:102F4C000123D0E06A4B1B6803F007033A689A42EE
:102F5C0010D9674B1B6823F0070265493B68134384
:102F6C000B60634B1B6803F007033A689A4201D06D
:102F7C000123B8E07B681B6803F00203002B20D010
:102F8C007B681B6803F00403002B05D0594B5B686E
:102F9C00584A43F4E06353607B681B6803F00803F2
:102FAC00002B05D0534B5B68524A43F4605353607B
:102FBC00504B5B6823F0F0027B689B684D491343D0
:102FCC004B607B681B6803F00103002B40D07B68CF
:102FDC005B68012B07D1474B1B6803F40033002BB4
:102FEC0015D101237FE07B685B68022B07D1414B35
:102FFC001B6803F00073002B09D1012373E03D4BD8
:10300C001B6803F00203002B01D101236BE0394B49
:10301C005B6823F003027B685B68364913434B60A3
:10302C00FFF742FAF8600AE0FFF73EFA0246FB6847
:10303C00D31A41F28832934201D9032353E02D4B2A
:10304C005B6803F00C027B685B689B009A42EBD1D7
:10305C00274B1B6803F007033A689A4210D2244BA3
:10306C001B6823F0070222493B6813430B60204B7B
:10307C001B6803F007033A689A4201D0012332E03F
:10308C007B681B6803F00403002B08D0194B5B68AA
:10309C0023F4E0627B68DB68164913434B607B6862
:1030AC001B6803F00803002B09D0124B5B6823F458
:1030BC0060527B681B69DB000E4913434B6000F0C8
:1030CC0021F802460B4B5B681B0903F00F030A49FE
:1030DC00CB5C22FA03F3094A1360094B1B681846B0
:1030EC00FFF7A0F9002318461037BD4680BD00BF7E
:1030FC0000200240001002401C3A00080000002092
:10310C000400002080B487B000AF0023FB600023D4
:10311C00BB6000237B6100237B6000233B611E4B63
:10312C005B68FB60FB6803F00C03042B02D0082BDC
:10313C0003D027E0194B3B6127E0FB689B0C03F0A5
:10314C000F03174AD35C7B60FB6803F48033002BBE
:10315C0010D0114B5B685B0C03F00103114AD35C7C
:10316C00BB607B680D4A02FB03F2BB68B2FBF3F356
:10317C007B6104E07B680C4A02FB03F37B617B6997
:10318C003B6102E0054B3B6100BF3B6918461C37B5
:10319C00BD4680BC704700BF0010024000127A0090
:1031AC002C3A00083C3A000800093D0080B485B078
:1031BC0000AF78600A4B1B680A4AA2FB03235B0A28
:1031CC007A6802FB03F3FB6000BFFB685A1EFA60CF
:1031DC00002BF9D100BF00BF1437BD4680BC70472F
:1031EC0000000020D34D621080B582B000AF786033
:1031FC007B68002B01D1012341E07B6893F83D30C3
:10320C00DBB2002B06D17B68002283F83C20786867
:10321C00FFF770F87B68022283F83D207B681A6800
:10322C007B6804331946104600F056FA7B6801227D
:10323C0083F846207B68012283F83E207B680122BC
:10324C0083F83F207B68012283F840207B680122B1
:10325C0083F841207B68012283F842207B6801229D
:10326C0083F843207B68012283F844207B68012289
:10327C0083F845207B68012283F83D200023184603
:10328C000837BD4680BD000080B485B000AF7860C3
:10329C007B6893F83D30DBB2012B01D0012335E084
:1032AC007B68022283F83D207B681B68DA687B68A8
:1032BC001B6842F00102DA607B681B68164A934275
:1032CC0009D07B681B68B3F1804F04D07B681B6806
:1032DC00124A934211D17B681B689B6803F0070369
:1032EC00FB60FB68062B10D07B681B681A687B6838
:1032FC001B6842F001021A6007E07B681B681A68C1
:10330C007B681B6842F001021A60002318461437D0
:10331C00BD4680BC704700BF002C0140000400403B
:10332C0080B584B000AF78607B681B68DB68FB609D
:10333C007B681B681B69BB60BB6803F00203002B36
:10334C0020D0FB6803F00203002B1BD07B681B68AA
:10335C006FF002021A617B6801221A777B681B6886
:10336C009B6903F00303002B03D0786800F098F9F5
:10337C0005E0786800F08BF9786800F09AF97B68C2
:10338C0000221A77BB6803F00403002B20D0FB68E3
:10339C0003F00403002B1BD07B681B686FF0040246
:1033AC001A617B6802221A777B681B689B6903F49D
:1033BC004073002B03D0786800F072F905E0786850
:1033CC0000F065F9786800F074F97B6800221A77D0
:1033DC00BB6803F00803002B20D0FB6803F0080344
:1033EC00002B1BD07B681B686FF008021A617B688E
:1033FC0004221A777B681B68DB6903F00303002B3C
:10340C0003D0786800F04CF905E0786800F03FF9DB
:10341C00786800F04EF97B6800221A77BB6803F0DD
:10342C001003002B20D0FB6803F01003002B1BD0E3
:10343C007B681B686FF010021A617B6808221A7790
:10344C007B681B68DB6903F44073002B03D078683E
:10345C0000F026F905E0786800F019F9786800F0BA
:10346C0028F97B6800221A77BB6803F00103002B54
:10347C000CD0FB6803F00103002B07D07B681B68A2
:10348C006FF001021A617868FEF7AAFEBB6803F0C0
:10349C008003002B0CD0FB6803F08003002B07D0BB
:1034AC007B681B686FF080021A61786800F06FFA15
:1034BC00BB6803F04003002B0CD0FB6803F0400307
:1034CC00002B07D07B681B686FF040021A6178688C
:1034DC0000F0F8F8BB6803F02003002B0CD0FB685D
:1034EC0003F02003002B07D07B681B686FF02002D1
:1034FC001A61786800F042FA00BF1037BD4680BDF3
:10350C0080B584B000AF786039600023FB737B68B2
:10351C0093F83C30012B01D10223B4E07B680122EB
:10352C0083F83C207B68022283F83D207B681B6873
:10353C009B68BB60BB6823F07703BB60BB6823F45C
:10354C007F43BB607B681B68BA689A603B681B68EA
:10355C00B3F5005F3ED0B3F5005F00F28780B3F5A2
:10356C00805F00F08680B3F5805F7FD8702B1AD017
:10357C00702B7BD8602B50D0602B77D8502B3CD045
:10358C00502B73D8402B58D0402B6FD8302B64D095
:10359C00302B6BD8202B60D0202B67D8002B5CD025
:1035AC00102B5AD062E07B6818683B6899683B68BE
:1035BC005A683B68DB6800F06AF97B681B689B689B
:1035CC00BB60BB6843F07703BB607B681B68BA6861
:1035DC009A604FE07B6818683B6899683B685A684A
:1035EC003B68DB6800F053F97B681B689A687B6862
:1035FC001B6842F480429A603CE07B6818683B6828
:10360C0059683B68DB681A4600F0CAF87B681B688F
:10361C005021184600F021F92CE07B6818683B68B3
:10362C0059683B68DB681A4600F0E8F87B681B6851
:10363C006021184600F011F91CE07B6818683B68A3
:10364C0059683B68DB681A4600F0AAF87B681B686F
:10365C004021184600F001F90CE07B681A683B68C1
:10366C001B681946104600F0F8F803E00123FB73C1
:10367C0000E000BF7B68012283F83D207B680022BC
:10368C0083F83C20FB7B18461037BD4680BD80B4C8
:10369C0083B000AF786000BF0C37BD4680BC70476C
:1036AC0080B483B000AF786000BF0C37BD4680BCDF
:1036BC00704780B483B000AF786000BF0C37BD4654
:1036CC0080BC704780B483B000AF786000BF0C370B
:1036DC00BD4680BC7047000080B485B000AF7860F8
:1036EC0039607B681B68FB607B682B4A934207D070
:1036FC007B68B3F1804F03D07B68284A934208D192
:10370C00FB6823F07003FB603B685B68FA6813434B
:10371C00FB607B68204A934207D07B68B3F1804FF3
:10372C0003D07B681D4A934208D1FB6823F4407395
:10373C00FB603B68DB68FA681343FB60FB6823F0B3
:10374C0080023B685B691343FB607B68FA681A6014
:10375C003B689A687B68DA623B681A687B689A6295
:10376C007B680D4A934203D13B681A697B681A63E4
:10377C007B6801225A617B681B6903F00103002BF3
:10378C0005D07B681B6923F001027B681A6100BFBE
:10379C001437BD4680BC7047002C0140000400402B
:1037AC0080B487B000AFF860B9607A60FB681B6AC0
:1037BC007B61FB681B6A23F00102FB681A62FB68E1
:1037CC009B693B613B6923F0F0033B617B681B0108
:1037DC003A6913433B617B6923F00A037B617A6985
:1037EC00BB6813437B61FB683A699A61FB687A6931
:1037FC001A6200BF1C37BD4680BC704780B487B0CE
:10380C0000AFF860B9607A60FB681B6A7B61FB688B
:10381C001B6A23F01002FB681A62FB689B693B6110
:10382C003B6923F470433B617B681B033A69134388
:10383C003B617B6923F0A0037B61BB681B017A6948
:10384C0013437B61FB683A699A61FB687A691A6277
:10385C0000BF1C37BD4680BC704780B485B000AF3C
:10386C00786039607B689B68FB60FB6823F07003B1
:10387C00FB603A68FB68134343F00703FB607B680B
:10388C00FA689A6000BF1437BD4680BC704780B49C
:10389C0087B000AFF860B9607A603B60FB689B68EA
:1038AC007B617B6923F47F437B613B681A027B68F5
:1038BC001A43BB6813437A6913437B61FB687A69CB
:1038CC009A6000BF1C37BD4680BC704780B485B081
:1038DC0000AF786039607B6893F83C30012B01D1E4
:1038EC00022341E07B68012283F83C207B680222A2
:1038FC0083F83D207B681B685B68FB607B681B68FA
:10390C009B68BB60FB6823F07003FB603B681B6823
:10391C00FA681343FB607B681B68FA685A607B6823
:10392C001B68144A934209D07B681B68B3F1804F23
:10393C0004D07B681B68104A93420CD1BB6823F0FF
:10394C008003BB603B685B68BA681343BB607B68F1
:10395C001B68BA689A607B68012283F83D207B68FB
:10396C00002283F83C20002318461437BD4680BC47
:10397C00704700BF002C01400004004080B483B0AD
:10398C0000AF786000BF0C37BD4680BC704780B478
:10399C0083B000AF786000BF0C37BD4680BC704769
:1039AC0070B500260C4D0D4C641BA410A64209D119
:1039BC0000F022F800260A4D0A4C641BA410A64203
:1039CC0005D170BD55F8043B98470136EEE755F824
:1039DC00043B98470136F2E7403A0008403A0008A9
:1039EC00403A0008443A000803460244934200D18E
:1039FC00704703F8011BF9E7F8B500BFF8BC08BC29
:103A0C009E467047F8B500BFF8BC08BC9E46704790
:103A1C000000000000000000010203040607080972
:103A2C0002030405060708090A0B0C0D0E0F1010F3
:043A3C000102000083
:043A40003101000848
:043A44000D01000868
:0C3A480000127A001000000001000000D5
:04000005080023B913
:00000001FF
