:020000040800F2
:1000000000280020C5230008552300085B230008B2
:1000100061230008672300086D230008000000002A
:100020000000000000000000000000007323000832
:100030007F230008000000008B230008972300089E
:100040000D2400080D2400080D2400080D240008CC
:100050000D2400080D2400080D2400080D240008BC
:100060000D2400080D2400080D2400080D240008AC
:100070000D2400080D2400080D2400080D2400089C
:100080000D2400080D2400080D2400080D2400088C
:100090000D2400080D2400080D2400080D2400087C
:1000A0000D2400080D2400080D2400080D2400086C
:1000B000A52300080D240008000000000D240008FE
:1000C0000D24000800000000000000000D240008BE
:1000D000000000000D2400080D24000800000000AE
:1000E0000D2400080D2400080D2400080000000065
:1000F0000000000000000000000000000000000000
:0C01000000000000000000005FF808F1A3
:10010C0010B5054C237833B9044B13B10448AFF345
:10011C0000800123237010BD0C00002000000000A3
:10012C00103A000808B5034B1BB103490348AFF361
:10013C00008008BD0000000010000020103A0008EC
:10014C0080B582B000AF786001224FF6FF71C748CE
:10015C0002F042FC7B68072B00F2C18101A252F82D
:10016C0023F000BF91010008FB01000865020008A4
:10017C00CF02000839030008A30300080D0400088F
:10018C008104000801220421B94802F025FC012257
:10019C000821B74802F020FC01224FF48061B448DA
:1001AC0002F01AFC00224FF40061B14802F014FC7A
:1001BC0000224FF48051AE4802F00EFC01224FF4A5
:1001CC000051AB4802F008FC01224FF48041A848D2
:1001DC0002F002FC01224FF40041A54802F0FCFBA6
:1001EC0000224FF48071A14802F0F6FB78E1012265
:1001FC0004219F4802F0F0FB012208219C4802F0E8
:10020C00EBFB00224FF48061994802F0E5FB0022E1
:10021C004FF40061964802F0DFFB00224FF480514E
:10022C00934802F0D9FB00224FF40051904802F0A1
:10023C00D3FB01224FF480418D4802F0CDFB01220B
:10024C004FF400418A4802F0C7FB00224FF40071C2
:10025C00864802F0C1FB43E101220421844802F0EC
:10026C00BBFB00220821824802F0B6FB00224FF4AF
:10027C0080617F4802F0B0FB01224FF400617C48A2
:10028C0002F0AAFB01224FF48051794802F0A4FB42
:10029C0000224FF40051764802F09EFB00224FF4EE
:1002AC008041734802F098FB01224FF400417048E2
:1002BC0002F092FB00224FF480616C4802F08CFB40
:1002CC000EE1012204216A4802F086FB002208217B
:1002DC00674802F081FB00224FF48061644802F011
:1002EC007BFB01224FF40061614802F075FB012297
:1002FC004FF480515E4802F06FFB00224FF4005126
:10030C005B4802F069FB00224FF48041584802F030
:10031C0063FB01224FF40041554802F05DFB0022C3
:10032C004FF40061514802F057FBD9E0012204213F
:10033C004F4802F051FB002208214D4802F04CFBC3
:10034C0000224FF480614A4802F046FB00224FF431
:10035C000061474802F040FB00224FF480514448B2
:10036C0002F03AFB00224FF40051414802F034FBFA
:10037C0000224FF480413E4802F02EFB01224FF444
:10038C0000413B4802F028FB00224FF480513748D3
:10039C0002F022FBA4E001220421354802F01CFBF0
:1003AC0000220821324802F017FB00224FF4806132
:1003BC002F4802F011FB01224FF400612C4802F08F
:1003CC000BFB01224FF48051294802F005FB00225F
:1003DC004FF40051264802F0FFFA00224FF48041FE
:1003EC00234802F0F9FA01224FF40041204802F0B0
:1003FC00F3FA00224FF400511C4802F0EDFA6FE0C2
:10040C00012204211A4802F0E7FA002208211848B8
:10041C0002F0E2FA00224FF48061154802F0DCFA97
:10042C0001224FF40061124802F0D6FA01224FF477
:10043C0080510F4802F0D0FA00224FF400510C48C2
:10044C0002F0CAFA00224FF48041094802F0C4FAC3
:10045C0001224FF40041064802F0BEFA00224FF48C
:10046C008041024802F0B8FA3AE000BF000C0140AB
:10047C0000080140012204211B4802F0ADFA0022C1
:10048C000821194802F0A8FA00224FF4806116489E
:10049C0002F0A2FA01224FF40061134802F09CFA18
:1004AC0001224FF48051104802F096FA00224FF4CA
:1004BC0000510D4802F090FA00224FF480410A4896
:1004CC0002F08AFA01224FF40041074802F084FA44
:1004DC0000224FF40041054802F07EFA00E000BF14
:1004EC0000BF0837BD4680BD00080140000C01402C
:1004FC0080B582B000AF786001224FF6FF71C7481B
:10050C0002F06AFA7B68072B00F2C18101A252F853
:10051C0023F000BF41050008AB05000815060008D4
:10052C007F060008E906000853070008BD0700080D
:10053C003108000801220421B94802F04DFA0122C9
:10054C000821B74802F048FA00224FF48061B44801
:10055C0002F042FA00224FF40061B14802F03CFA7A
:10056C0001224FF48051AE4802F036FA01224FF4CA
:10057C000051AB4802F030FA01224FF48041A848F8
:10058C0002F02AFA01224FF40041A54802F024FAA5
:10059C0000224FF48071A14802F01EFA78E101228A
:1005AC0004219F4802F018FA002208219C4802F00E
:1005BC0013FA00224FF48061994802F00DFA0022E0
:1005CC004FF40061964802F007FA00224FF4805174
:1005DC00934802F001FA01224FF40051904802F0C6
:1005EC00FBF901224FF480418D4802F0F5F901220C
:1005FC004FF400418A4802F0EFF900224FF40071E9
:10060C00864802F0E9F943E100220421844802F013
:10061C00E3F900220821824802F0DEF901224FF4AE
:10062C0080617F4802F0D8F901224FF400617C48C8
:10063C0002F0D2F900224FF48051794802F0CCF943
:10064C0000224FF40051764802F0C6F901224FF413
:10065C008041734802F0C0F901224FF40041704808
:10066C0002F0BAF900224FF480616C4802F0B4F940
:10067C000EE1002204216A4802F0AEF900220821A2
:10068C00674802F0A9F901224FF48061644802F036
:10069C00A3F901224FF40061614802F09DF9002298
:1006AC004FF480515E4802F097F900224FF400514C
:1006BC005B4802F091F901224FF48041584802F056
:1006CC008BF901224FF40041554802F085F90022C4
:1006DC004FF40061514802F07FF9D9E00022042167
:1006EC004F4802F079F9002208214D4802F074F9C4
:1006FC0000224FF480614A4802F06EF900224FF458
:10070C000061474802F068F900224FF480514448D8
:10071C0002F062F900224FF40051414802F05CF9FA
:10072C0001224FF480413E4802F056F901224FF469
:10073C0000413B4802F050F900224FF480513748F9
:10074C0002F04AF9A4E000220421354802F044F9F1
:10075C0000220821324802F03FF901224FF4806157
:10076C002F4802F039F901224FF400612C4802F0B5
:10077C0033F900224FF48051294802F02DF9002260
:10078C004FF40051264802F027F901224FF4804122
:10079C00234802F021F901224FF40041204802F0D5
:1007AC001BF900224FF400511C4802F015F96FE0C0
:1007BC00002204211A4802F00FF9002208211848DF
:1007CC0002F00AF901224FF48061154802F004F995
:1007DC0001224FF40061124802F0FEF800224FF49F
:1007EC0080510F4802F0F8F800224FF400510C48E9
:1007FC0002F0F2F801224FF48041094802F0ECF8C3
:10080C0001224FF40041064802F0E6F800224FF4B2
:10081C008041024802F0E0F83AE000BF000C0140D1
:10082C0000080140002204211B4802F0D5F80022E8
:10083C000821194802F0D0F801224FF480611648C3
:10084C0002F0CAF801224FF40061134802F0C4F818
:10085C0000224FF48051104802F0BEF800224FF4F1
:10086C0000510D4802F0B8F801224FF480410A48BB
:10087C0002F0B2F801224FF40041074802F0ACF844
:10088C0000224FF40041054802F0A6F800E000BF3A
:10089C0000BF0837BD4680BD00080140000C014078
:1008AC0080B582B000AF786001224FF6FF71C74867
:1008BC0002F092F87B68072B00F2C18101A252F87A
:1008CC0023F000BFF10800085B090008C509000807
:1008DC002F0A0008990A0008030B00086D0B00088A
:1008EC00E10B000801220421B94802F075F800223E
:1008FC000821B74802F070F800224FF48061B44828
:10090C0002F06AF801224FF40061B14802F064F879
:10091C0001224FF48051AE4802F05EF801224FF4F0
:10092C000051AB4802F058F801224FF48041A8481E
:10093C0002F052F801224FF40041A54802F04CF8A5
:10094C0000224FF48071A14802F046F878E10022B1
:10095C0004219F4802F040F8002208219C4802F034
:10096C003BF800224FF48061994802F035F80022E0
:10097C004FF40061964802F02FF801224FF4805199
:10098C00934802F029F801224FF40051904802F0EC
:10099C0023F801224FF480418D4802F01DF801220A
:1009AC004FF400418A4802F017F800224FF400710E
:1009BC00864802F011F843E100220421844802F039
:1009CC000BF801220821824802F006F801224FF4AC
:1009DC0080617F4802F000F800224FF400617C48EF
:1009EC0001F0FAFF00224FF48051794801F0F4FF36
:1009FC0001224FF40051764801F0EEFF01224FF432
:100A0C008041734801F0E8FF00224FF40041704828
:100A1C0001F0E2FF00224FF480616C4801F0DCFF32
:100A2C000EE1002204216A4801F0D6FF01220821C0
:100A3C00674801F0D1FF01224FF48061644801F056
:100A4C00CBFF00224FF40061614801F0C5FF00228A
:100A5C004FF480515E4801F0BFFF01224FF400516A
:100A6C005B4801F0B9FF01224FF48041584801F076
:100A7C00B3FF00224FF40041554801F0ADFF0022B6
:100A8C004FF40061514801F0A7FFD9E00022042186
:100A9C004F4801F0A1FF002208214D4801F09CFFB6
:100AAC0000224FF480614A4801F096FF00224FF477
:100ABC000061474801F090FF00224FF480514448F8
:100ACC0001F08AFF01224FF40051414801F084FFEC
:100ADC0001224FF480413E4801F07EFF00224FF48A
:100AEC0000413B4801F078FF00224FF48051374819
:100AFC0001F072FFA4E000220421354801F06CFFE4
:100B0C0001220821324801F067FF01224FF4806175
:100B1C002F4801F061FF00224FF400612C4801F0D6
:100B2C005BFF00224FF48051294801F055FF012250
:100B3C004FF40051264801F04FFF01224FF4804141
:100B4C00234801F049FF00224FF40041204801F0F6
:100B5C0043FF00224FF400511C4801F03DFF6FE0B1
:100B6C00002204211A4801F037FF012208211848FD
:100B7C0001F032FF01224FF48061154801F02CFF87
:100B8C0000224FF40061124801F026FF00224FF4BE
:100B9C0080510F4801F020FF01224FF400510C4806
:100BAC0001F01AFF01224FF48041094801F014FFB3
:100BBC0000224FF40041064801F00EFF00224FF4D2
:100BCC008041024801F008FF3AE000BF000C0140F0
:100BDC0000080140002204211B4801F0FDFE012207
:100BEC000821194801F0F8FE01224FF480611648E3
:100BFC0001F0F2FE00224FF40061134801F0ECFE0C
:100C0C0000224FF48051104801F0E6FE01224FF40F
:100C1C0000510D4801F0E0FE01224FF480410A48DA
:100C2C0001F0DAFE00224FF40041074801F0D4FE37
:100C3C0000224FF40041054801F0CEFE00E000BF59
:100C4C0000BF0837BD4680BD00080140000C0140C4
:100C5C0080B582B000AF786001224FF6FF71C748B3
:100C6C0001F0BAFE7B68072B00F2C18101A252F899
:100C7C0023F000BFA10C00080B0D0008750D000837
:100C8C00DF0D0008490E0008B30E00081D0F000808
:100C9C00910F000800220421B94801F09DFE0022AA
:100CAC000821B74801F098FE01224FF48061B44846
:100CBC0001F092FE01224FF40061B14801F08CFE6C
:100CCC0001224FF48051AE4801F086FE01224FF410
:100CDC000051AB4801F080FE01224FF48041A8483E
:100CEC0001F07AFE01224FF40041A54801F074FE98
:100CFC0000224FF48071A14801F06EFE78E10022D1
:100D0C0004219F4801F068FE002208219C4801F054
:100D1C0063FE00224FF48061994801F05DFE0122D0
:100D2C004FF40061964801F057FE01224FF48051B8
:100D3C00934801F051FE01224FF40051904801F00C
:100D4C004BFE01224FF480418D4801F045FE0022FC
:100D5C004FF400418A4801F03FFE00224FF400712D
:100D6C00864801F039FE43E101220421844801F058
:100D7C0033FE01220821824801F02EFE00224FF49E
:100D8C0080617F4801F028FE00224FF400617C480E
:100D9C0001F022FE01224FF48051794801F01CFE33
:100DAC0001224FF40051764801F016FE00224FF458
:100DBC008041734801F010FE00224FF4004170484E
:100DCC0001F00AFE00224FF480616C4801F004FE31
:100DDC000EE1012204216A4801F0FEFD01220821E6
:100DEC00674801F0F9FD00224FF48061644801F07E
:100DFC00F3FD00224FF40061614801F0EDFD01228A
:100E0C004FF480515E4801F0E7FD01224FF4005190
:100E1C005B4801F0E1FD00224FF48041584801F09D
:100E2C00DBFD00224FF40041554801F0D5FD0022B6
:100E3C004FF40061514801F0CFFDD9E000220421AC
:100E4C004F4801F0C9FD002208214D4801F0C4FDB6
:100E5C0000224FF480614A4801F0BEFD00224FF49D
:100E6C000061474801F0B8FD01224FF4805144481D
:100E7C0001F0B2FD01224FF40051414801F0ACFDEC
:100E8C0000224FF480413E4801F0A6FD00224FF4B1
:100E9C0000413B4801F0A0FD00224FF4805137483F
:100EAC0001F09AFDA4E001220421354801F094FDE3
:100EBC0001220821324801F08FFD00224FF480619D
:100ECC002F4801F089FD00224FF400612C4801F0FD
:100EDC0083FD01224FF48051294801F07DFD012250
:100EEC004FF40051264801F077FD00224FF4804169
:100EFC00234801F071FD00224FF40041204801F01D
:100F0C006BFD00224FF400511C4801F065FD6FE0B1
:100F1C00012204211A4801F05FFD01220821184822
:100F2C0001F05AFD00224FF48061154801F054FD88
:100F3C0000224FF40061124801F04EFD01224FF4E3
:100F4C0080510F4801F048FD01224FF400510C482C
:100F5C0001F042FD00224FF48041094801F03CFDB4
:100F6C0000224FF40041064801F036FD00224FF4F8
:100F7C008041024801F030FD3AE000BF000C014016
:100F8C0000080140012204211B4801F025FD01222B
:100F9C000821194801F020FD00224FF48061164809
:100FAC0001F01AFD00224FF40061134801F014FD0A
:100FBC0001224FF48051104801F00EFD01224FF434
:100FCC0000510D4801F008FD00224FF480410A4801
:100FDC0001F002FD00224FF40041074801F0FCFC37
:100FEC0000224FF40041054801F0F6FC00E000BF80
:100FFC0000BF0837BD4680BD00080140000C014011
:10100C0080B582B000AF786001224FF6FF71C748FF
:10101C0001F0E2FC7B68072B00F2C18101A252F8BF
:10102C0023F000BF51100008BB1000082511000868
:10103C008F110008F911000863120008CD12000886
:10104C004113000800220421B94801F0C5FC01221B
:10105C000821B74801F0C0FC01224FF48061B4486C
:10106C0001F0BAFC01224FF40061B14801F0B4FC6C
:10107C0001224FF48051AE4801F0AEFC01224FF436
:10108C000051AB4801F0A8FC01224FF48041A84864
:10109C0001F0A2FC00224FF40041A54801F09CFC99
:1010AC0000224FF48071A14801F096FC78E10022F7
:1010BC0004219F4801F090FC002208219C4801F07B
:1010CC008BFC01224FF48061994801F085FC0122D0
:1010DC004FF40061964801F07FFC01224FF48051DF
:1010EC00934801F079FC01224FF40051904801F033
:1010FC0073FC00224FF480418D4801F06DFC0022FE
:10110C004FF400418A4801F067FC00224FF4007153
:10111C00864801F061FC43E101220421844801F07E
:10112C005BFC00220821824801F056FC00224FF49F
:10113C0080617F4801F050FC01224FF400617C4833
:10114C0001F04AFC01224FF48051794801F044FC33
:10115C0000224FF40051764801F03EFC00224FF47F
:10116C008041734801F038FC01224FF40041704873
:10117C0001F032FC00224FF480616C4801F02CFC31
:10118C000EE1012204216A4801F026FC002208210C
:10119C00674801F021FC00224FF48061644801F0A3
:1011AC001BFC01224FF40061614801F015FC012287
:1011BC004FF480515E4801F00FFC00224FF40051B7
:1011CC005B4801F009FC00224FF48041584801F0C3
:1011DC0003FC01224FF40041554801F0FDFB0022B5
:1011EC004FF40061514801F0F7FBD9E000220421D3
:1011FC004F4801F0F1FB002208214D4801F0ECFBB7
:10120C0000224FF480614A4801F0E6FB01224FF4C2
:10121C000061474801F0E0FB01224FF48051444843
:10122C0001F0DAFB00224FF40051414801F0D4FBED
:10123C0000224FF480413E4801F0CEFB00224FF4D7
:10124C0000413B4801F0C8FB00224FF48051374865
:10125C0001F0C2FBA4E001220421354801F0BCFBE3
:10126C0000220821324801F0B7FB00224FF48061C4
:10127C002F4801F0B1FB01224FF400612C4801F022
:10128C00ABFB01224FF48051294801F0A5FB002251
:10129C004FF40051264801F09FFB00224FF480418F
:1012AC00234801F099FB01224FF40041204801F042
:1012BC0093FB00224FF400511C4801F08DFB6FE0B2
:1012CC00012204211A4801F087FB0022082118484A
:1012DC0001F082FB00224FF48061154801F07CFB89
:1012EC0001224FF40061124801F076FB01224FF409
:1012FC0080510F4801F070FB00224FF400510C4854
:10130C0001F06AFB00224FF48041094801F064FBB4
:10131C0001224FF40041064801F05EFB00224FF41D
:10132C008041024801F058FB3AE000BF000C01403C
:10133C0000080140012204211B4801F04DFB002252
:10134C000821194801F048FB00224FF4806116482F
:10135C0001F042FB01224FF40061134801F03CFB09
:10136C0001224FF48051104801F036FB00224FF45B
:10137C0000510D4801F030FB00224FF480410A4827
:10138C0001F02AFB01224FF40041074801F024FB35
:10139C0000224FF40041054801F01EFB00E000BFA5
:1013AC0000BF0837BD4680BD00080140000C01405D
:1013BC0080B582B000AF786001224FF6FF71C7484C
:1013CC0001F00AFB7B68072B00F2C18101A252F8E5
:1013DC0023F000BF011400086B140008D51400089A
:1013EC003F150008A9150008131600087D16000803
:1013FC00F116000801220421B94801F0EDFA01228E
:10140C000821B74801F0E8FA01224FF48061B44892
:10141C0001F0E2FA01224FF40061B14801F0DCFA6C
:10142C0001224FF48051AE4801F0D6FA01224FF45C
:10143C000051AB4801F0D0FA00224FF48041A8488B
:10144C0001F0CAFA00224FF40041A54801F0C4FA99
:10145C0000224FF48071A14801F0BEFA78E100221D
:10146C0004219F4801F0B8FA012208219C4801F0A0
:10147C00B3FA01224FF48061994801F0ADFA0122D0
:10148C004FF40061964801F0A7FA01224FF4805105
:10149C00934801F0A1FA00224FF40051904801F05A
:1014AC009BFA00224FF480418D4801F095FA0022FE
:1014BC004FF400418A4801F08FFA00224FF400717A
:1014CC00864801F089FA43E100220421844801F0A6
:1014DC0083FA00220821824801F07EFA01224FF49F
:1014EC0080617F4801F078FA01224FF400617C485A
:1014FC0001F072FA00224FF48051794801F06CFA35
:10150C0000224FF40051764801F066FA01224FF4A4
:10151C008041734801F060FA01224FF40041704899
:10152C0001F05AFA00224FF480616C4801F054FA31
:10153C000EE1002204216A4801F04EFA0022082133
:10154C00674801F049FA01224FF48061644801F0C8
:10155C0043FA01224FF40061614801F03DFA002288
:10156C004FF480515E4801F037FA00224FF40051DD
:10157C005B4801F031FA01224FF48041584801F0E8
:10158C002BFA01224FF40041554801F025FA0022B4
:10159C004FF40061514801F01FFAD9E000220421F8
:1015AC004F4801F019FA002208214D4801F014FAB5
:1015BC0001224FF480614A4801F00EFA01224FF4E7
:1015CC000061474801F008FA00224FF4805144486A
:1015DC0001F002FA00224FF40051414801F0FCF9ED
:1015EC0000224FF480413E4801F0F6F900224FF4FE
:1015FC0000413B4801F0F0F900224FF4805137488C
:10160C0001F0EAF9A4E000220421354801F0E4F9E4
:10161C0000220821324801F0DFF901224FF48061E9
:10162C002F4801F0D9F901224FF400612C4801F048
:10163C00D3F900224FF48051294801F0CDF9002252
:10164C004FF40051264801F0C7F901224FF48041B4
:10165C00234801F0C1F901224FF40041204801F068
:10166C00BBF900224FF400511C4801F0B5F96FE0B2
:10167C00002204211A4801F0AFF900220821184871
:10168C0001F0AAF901224FF48061154801F0A4F988
:10169C0001224FF40061124801F09EF900224FF430
:1016AC0080510F4801F098F900224FF400510C487A
:1016BC0001F092F901224FF48041094801F08CF9B4
:1016CC0001224FF40041064801F086F900224FF444
:1016DC008041024801F080F93AE000BF000C014063
:1016EC0000080140002204211B4801F075F900227A
:1016FC000821194801F070F901224FF48061164855
:10170C0001F06AF901224FF40061134801F064F909
:10171C0000224FF48051104801F05EF900224FF482
:10172C0000510D4801F058F901224FF480410A484C
:10173C0001F052F901224FF40041074801F04CF935
:10174C0000224FF40041054801F046F900E000BFCB
:10175C0000BF0837BD4680BD00080140000C0140A9
:10176C0080B582B000AF786001224FF6FF71C74898
:10177C0001F032F97B68072B00F2C18101A252F80B
:10178C0023F000BFB11700081B18000885180008CB
:10179C00EF18000859190008C31900082D1A000881
:1017AC00A11A000801220421B94801F015F90122FF
:1017BC000821B74801F010F901224FF48061B448B8
:1017CC0001F00AF901224FF40061B14801F004F96B
:1017DC0001224FF48051AE4801F0FEF800224FF484
:1017EC000051AB4801F0F8F800224FF48041A848B2
:1017FC0001F0F2F801224FF40041A54801F0ECF899
:10180C0000224FF48071A14801F0E6F878E1012242
:10181C0004219F4801F0E0F8012208219C4801F0C6
:10182C00DBF801224FF48061994801F0D5F80122D0
:10183C004FF40061964801F0CFF800224FF480512C
:10184C00934801F0C9F800224FF40051904801F080
:10185C00C3F800224FF480418D4801F0BDF80022FE
:10186C004FF400418A4801F0B7F800224FF40071A0
:10187C00864801F0B1F843E100220421844801F0CC
:10188C00ABF801220821824801F0A6F801224FF49E
:10189C0080617F4801F0A0F800224FF400617C4881
:1018AC0001F09AF800224FF48051794801F094F835
:1018BC0001224FF40051764801F08EF801224FF4CA
:1018CC008041734801F088F800224FF400417048C1
:1018DC0001F082F800224FF480616C4801F07CF832
:1018EC000EE1002204216A4801F076F80122082159
:1018FC00674801F071F801224FF48061644801F0EF
:10190C006BF800224FF40061614801F065F8002289
:10191C004FF480515E4801F05FF801224FF4005102
:10192C005B4801F059F801224FF48041584801F00E
:10193C0053F800224FF40041554801F04DF80022B5
:10194C004FF40061514801F047F8D9E0002204211E
:10195C004F4801F041F8012208214D4801F03CF8B4
:10196C0001224FF480614A4801F036F800224FF40E
:10197C000061474801F030F800224FF48051444890
:10198C0001F02AF800224FF40051414801F024F8EC
:10199C0000224FF480413E4801F01EF800224FF423
:1019AC0000413B4801F018F800224FF480513748B1
:1019BC0001F012F8A4E000220421354801F00CF8E3
:1019CC0001220821324801F007F801224FF480610E
:1019DC002F4801F001F800224FF400612C4800F070
:1019EC00FBFF00224FF48051294800F0F5FF012243
:1019FC004FF40051264800F0EFFF01224FF48041D4
:101A0C00234800F0E9FF00224FF40041204800F089
:101A1C00E3FF00224FF400511C4800F0DDFF6FE0A3
:101A2C00002204211A4800F0D7FF0122082118488F
:101A3C0000F0D2FF01224FF48061154800F0CCFF7A
:101A4C0000224FF40061124800F0C6FF00224FF450
:101A5C0080510F4800F0C0FF01224FF400510C4898
:101A6C0000F0BAFF01224FF48041094800F0B4FFA6
:101A7C0000224FF40041064800F0AEFF00224FF464
:101A8C008041024800F0A8FF3AE000BF000C014082
:101A9C0000080140002204211B4800F09DFF012298
:101AAC000821194800F098FF01224FF48061164874
:101ABC0000F092FF00224FF40061134800F08CFFFD
:101ACC0000224FF48051104800F086FF01224FF4A1
:101ADC0000510D4800F080FF01224FF480410A486C
:101AEC0000F07AFF00224FF40041074800F074FF29
:101AFC0000224FF40041054800F06EFF00E000BFEB
:101B0C0000BF0837BD4680BD00080140000C0140F5
:101B1C0080B582B000AF786001224FF6FF71C748E4
:101B2C0000F05AFF7B68072B00F2C18101A252F82A
:101B3C0023F000BF611B0008CB1B0008351C0008FC
:101B4C009F1C0008091D0008731D0008DD1D0008FE
:101B5C00511E000801220421B94800F03DFF01226A
:101B6C000821B74800F038FF01224FF48061B448D7
:101B7C0000F032FF01224FF40061B14800F02CFF5D
:101B8C0000224FF48051AE4800F026FF00224FF4A3
:101B9C000051AB4800F020FF01224FF48041A848CF
:101BAC0000F01AFF01224FF40041A54800F014FF89
:101BBC0000224FF48071A14800F00EFF78E1012261
:101BCC0004219F4800F008FF012208219C4800F0E6
:101BDC0003FF01224FF48061994800F0FDFE0022C2
:101BEC004FF40061964800F0F7FE00224FF480514C
:101BFC00934800F0F1FE00224FF40051904800F0A1
:101C0C00EBFE00224FF480418D4800F0E5FE0122EE
:101C1C004FF400418A4800F0DFFE00224FF40071BF
:101C2C00864800F0D9FE43E101220421844800F0EB
:101C3C00D3FE01220821824800F0CEFE00224FF490
:101C4C0080617F4800F0C8FE00224FF400617C48A0
:101C5C0000F0C2FE01224FF48051794800F0BCFE26
:101C6C0001224FF40051764800F0B6FE00224FF4EA
:101C7C008041734800F0B0FE00224FF400417048E0
:101C8C0000F0AAFE00224FF480616C4800F0A4FE24
:101C9C000EE1012204216A4800F09EFE0122082177
:101CAC00674800F099FE00224FF48061644800F010
:101CBC0093FE00224FF40061614800F08DFE01227A
:101CCC004FF480515E4800F087FE01224FF4005122
:101CDC005B4800F081FE00224FF48041584800F030
:101CEC007BFE00224FF40041554800F075FE0022A7
:101CFC004FF40061514800F06FFED9E0012204213D
:101D0C004F4800F069FE012208214D4800F064FEA6
:101D1C0000224FF480614A4800F05EFE00224FF42E
:101D2C000061474800F058FE00224FF480514448AF
:101D3C0000F052FE00224FF40051414800F04CFEDE
:101D4C0000224FF480413E4800F046FE00224FF442
:101D5C0000413B4800F040FE00224FF480513748D0
:101D6C0000F03AFEA4E001220421354800F034FED4
:101D7C0001220821324800F02FFE00224FF480612E
:101D8C002F4800F029FE00224FF400612C4800F08F
:101D9C0023FE01224FF48051294800F01DFE012240
:101DAC004FF40051264800F017FE00224FF48041FA
:101DBC00234800F011FE00224FF40041204800F0AF
:101DCC000BFE00224FF400511C4800F005FE6FE0A2
:101DDC00012204211A4800F0FFFD012208211848B5
:101DEC0000F0FAFD00224FF48061154800F0F4FD7C
:101DFC0000224FF40061124800F0EEFD01224FF476
:101E0C0080510F4800F0E8FD01224FF400510C48BE
:101E1C0000F0E2FD00224FF48041094800F0DCFDA7
:101E2C0000224FF40041064800F0D6FD00224FF48A
:101E3C008041024800F0D0FD3AE000BF000C0140A8
:101E4C0000080140012204211B4800F0C5FD0122BD
:101E5C000821194800F0C0FD00224FF4806116489B
:101E6C0000F0BAFD00224FF40061134800F0B4FDFD
:101E7C0001224FF48051104800F0AEFD01224FF4C6
:101E8C0000510D4800F0A8FD00224FF480410A4893
:101E9C0000F0A2FD00224FF40041074800F09CFD29
:101EAC0000224FF40041054800F096FD00E000BF11
:101EBC0000BF0837BD4680BD00080140000C014042
:101ECC0080B400AF00BFBD4680BC704780B582B007
:101EDC0000AF0021002000F099F90021012000F052
:101EEC0095F91921022000F091F93221032000F01C
:101EFC008DF94B21042000F089F90021052000F018
:101F0C0085F90021062000F081F900237B60002375
:101F1C003B6000F077FAFFF7D3FF00F089F800F090
:101F2C00C3F800F00DF93E4801F0B4F93D4B1B68C5
:101F3C00012B0CD16421002000F068F920213A48D3
:101F4C0000F062FD01221021374800F045FD354BB1
:101F5C009B69012BEAD10121062000F057F93B685F
:101F6C00002B05DB3B68172B02DC7868FEF7E8F8E2
:101F7C003B68172B05DD3B682F2B02DC7868FEF7DE
:101F8C00B7FA3B682F2B05DD3B68472B02DC7868E2
:101F9C00FEF786FC3B68472B05DD3B685F2B02DCBC
:101FAC007868FEF755FE3B685F2B05DD3B68772BA9
:101FBC0002DC7868FFF724F83B68772B05DD3B687B
:101FCC008F2B02DC7868FFF7F3F93B688F2B05DD6C
:101FDC003B68A72B02DC7868FFF7C2FB3B68A72B9A
:101FEC0005DD3B68C32B02DC7868FFF791FD7B684D
:101FFC0001335A4203F0070302F0070258BF534261
:10200C007B603B680133094A82FB03129111DA179A
:10201C008A1AC42101FB02F29B1A3B6086E700BFBF
:10202C002800002098000020000801409D82975352
:10203C0080B590B000AF07F1180328220021184694
:10204C0001F0D8FC3B1D00221A605A609A60DA60DD
:10205C001A610223BB610123BB621023FB620023C4
:10206C007B6307F11803184600F0E8FC0346002BCD
:10207C0001D000F0C5F80F237B600023BB60002368
:10208C00FB6000233B6100237B613B1D0021184654
:10209C0000F054FF0346002B01D000F0B1F800BF54
:1020AC004037BD4680BD000080B586B000AF07F15B
:1020BC00080300221A605A609A60DA603B460022DC
:1020CC001A605A601D4B4FF080421A601B4B41F650
:1020DC003F725A60194B00229A60184B0A22DA6040
:1020EC00164B00221A61154B00229A61134801F01D
:1020FC0081F80346002B01D000F082F84FF4805396
:10210C00BB6007F1080319460C4801F0FFF90346C0
:10211C00002B01D000F074F800233B6000237B609F
:10212C003B461946054801F0D7FB0346002B01D06E
:10213C0000F066F800BF1837BD4680BD28000020AF
:10214C0080B586B000AF07F1080300221A605A6010
:10215C009A60DA60224B9B69214A43F00403936135
:10216C001F4B9B6903F004037B607B681C4B9B69D2
:10217C001B4A43F008039361194B9B6903F0080356
:10218C003B603B6800224FF6FC71164800F024FCC3
:10219C0000224FF67F71144800F01EFC4FF6FC73C2
:1021AC00BB600123FB6000233B6102237B6107F1D1
:1021BC00080319460B4800F095FA4FF67F73BB6085
:1021CC000123FB6000233B6102237B6107F10803C1
:1021DC001946054800F086FA00BF1837BD4680BD89
:1021EC000010024000080140000C014080B582B094
:1021FC0000AF786000F022F800BF0837BD4680BD04
:10220C0080B400AF72B600BFFEE7000080B483B0AC
:10221C0000AF7860396007497B683A6841F8232041
:10222C00054A7B68002142F8231000BF0C37BD46DD
:10223C0080BC7047700000209800002080B483B0F0
:10224C0000AF00237B601CE0124A7B6852F82330FD
:10225C00002B13DB0F4A7B6852F823305A1E0D49B2
:10226C007B6841F823200B4A7B6852F82330002B03
:10227C0004DC094A7B68012142F823107B68013396
:10228C007B607B68092BDFDD00BF00BF0C37BD46D0
:10229C0080BC7047700000209800002080B485B08E
:1022AC0000AF154B9B69144A43F001039361124B29
:1022BC009B6903F00103BB60BB680F4BDB690E4AE3
:1022CC0043F08053D3610C4BDB6903F080537B608C
:1022DC007B680A4B5B68FB60FB6823F0E063FB6088
:1022EC00FB6843F08063FB60044AFB68536000BFEB
:1022FC001437BD4680BC70470010024000000140FE
:10230C0080B584B000AF78607B681B68B3F1804FF8
:10231C0013D10C4BDB690B4A43F00103D361094B1E
:10232C00DB6903F00103FB60FB68002200211C2029
:10233C0000F0A1F91C2000F0BAF900BF1037BD461F
:10234C0080BD00BF0010024080B400AFFEE780B437
:10235C0000AFFEE780B400AFFEE780B400AFFEE74D
:10236C0080B400AFFEE780B400AF00BFBD4680BCB8
:10237C00704780B400AF00BFBD4680BC704780B4CE
:10238C0000AF00BFBD4680BC704780B500AF00F009
:10239C007FF800BF80BD000080B500AF024800F0A0
:1023AC00C5FF00BF80BD00BF2800002080B400AF77
:1023BC0000BFBD4680BC7047FFF7F8FF0B480C49C7
:1023CC000C4A002302E0D458C4500433C4188C4285
:1023DC00F9D3094A094C002301E013600432A242EC
:1023EC00FBD301F0E3FAFFF771FD7047000000200A
:1023FC000C000020543A00080C000020C4000020FF
:10240C00FEE7000080B500AF084B1B68074A43F09D
:10241C0010031360032000F023F90F2000F008F8DC
:10242C00FFF73CFF0023184680BD00BF0020024090
:10243C0080B582B000AF7860124B1A68124B1B78D3
:10244C0019464FF47A73B3FBF1F3B2FBF3F318466E
:10245C0000F03BF90346002B01D001230EE07B6812
:10246C000F2B0AD8002279684FF0FF3000F003F9E7
:10247C00064A7B681360002300E0012318460837E6
:10248C00BD4680BD00000020080000200400002094
:10249C0080B400AF054B1B781A46054B1B681344E0
:1024AC00034A136000BFBD4680BC70470800002083
:1024BC00C000002080B400AF024B1B681846BD461C
:1024CC0080BC7047C000002080B485B000AF78603D
:1024DC007B6803F00703FB600C4BDB68BB60BA68DE
:1024EC004FF6FF031340BB60FB681A02BB68134333
:1024FC0043F0BF6343F40033BB60044ABB68D36052
:10250C0000BF1437BD4680BC704700BF00ED00E033
:10251C0080B400AF044BDB681B0A03F007031846BA
:10252C00BD4680BC704700BF00ED00E080B483B0B6
:10253C0000AF0346FB7197F90730002B0BDBFB79DF
:10254C0003F01F02064997F907305B09012000FAD6
:10255C0002F241F8232000BF0C37BD4680BC704707
:10256C0000E100E080B483B000AF03463960FB713A
:10257C0097F90730002B0ADB3B68DAB20C4997F964
:10258C0007301201D2B20B4483F800230AE03B68F7
:10259C00DAB20849FB7903F00F03043B1201D2B203
:1025AC000B441A7600BF0C37BD4680BC704700BF89
:1025BC0000E100E000ED00E080B489B000AFF8600D
:1025CC00B9607A60FB6803F00703FB61FB69C3F138
:1025DC000703042B28BF0423BB61FB690433062BC0
:1025EC0002D9FB69033B00E000237B614FF0FF3213
:1025FC00BB6902FA03F3DA43BB681A407B699A4061
:10260C004FF0FF317B6901FA03F3D9437B680B4030
:10261C00134318462437BD4680BC704780B582B042
:10262C0000AF78607B68013BB3F1807F01D301235D
:10263C000FE00A4A7B68013B53600F214FF0FF30DB
:10264C00FFF790FF054B00229A60044B07221A609B
:10265C00002318460837BD4680BD00BF10E000E0DF
:10266C0080B582B000AF78607868FFF72DFF00BFAF
:10267C000837BD4680BD80B586B000AF0346B96053
:10268C007A60FB7300237B61FFF742FF78617A6805
:10269C00B9687869FFF790FF024697F90F30114639
:1026AC001846FFF75FFF00BF1837BD4680BD80B5E9
:1026BC0082B000AF0346FB7197F907301846FFF75D
:1026CC0035FF00BF0837BD4680BD80B582B000AF76
:1026DC0078607868FFF7A2FF034618460837BD46B6
:1026EC0080BD000080B48BB000AF786039600023EF
:1026FC007B6200233B6248E101227B6A02FA03F30E
:10270C00FB613B681B68FA691340BB61BA69FB69E2
:10271C009A4240F037813B685B68A34A93425ED093
:10272C00A14A934275D8A14A934258D09F4A9342EA
:10273C006FD89F4A934252D09D4A934269D89D4A82
:10274C0093424CD09B4A934263D89B4A934246D0C7
:10275C00994A93425DD8122B2AD8122B59D801A230
:10276C0052F823F0EB270008C5270008D7270008EC
:10277C00192800081F2800081F2800081F28000817
:10278C001F2800081F2800081F2800081F28000801
:10279C001F2800081F2800081F2800081F280008F1
:1027AC001F2800081F280008CD270008E127000873
:1027BC00824A934213D02CE03B68DB683B6229E0F1
:1027CC003B68DB6804333B6224E03B68DB6808331E
:1027DC003B621FE03B68DB680C333B621AE03B68F2
:1027EC009B68002B02D104233B6213E03B689B687F
:1027FC00012B05D108233B627B68FA691A6109E059
:10280C0008233B627B68FA695A6103E000233B6250
:10281C0000E000BFBB69FF2B01D87B6801E07B683F
:10282C0004337B61BB69FF2B02D87B6A9B0002E0FF
:10283C007B6A083B9B003B617B691A680F213B69F3
:10284C0001FA03F3DB431A40396A3B6901FA03F3DB
:10285C001A437B691A603B685B6803F08053002B5A
:10286C0000F09080564B9B69554A43F001039361ED
:10287C00534B9B6903F00103BB60BB68514A7B6AF5
:10288C009B08023352F82330FB607B6A03F003038E
:10289C009B000F2202FA03F3DB43FA681340FB6040
:1028AC007B68494A93420DD07B68484A934207D0D3
:1028BC007B68474A934201D1022304E0032302E0E0
:1028CC00012300E000237A6A02F003029200934095
:1028DC00FA681343FB603B497B6A9B080233FA6836
:1028EC0041F823203B685B6803F48013002B06D06F
:1028FC00384B9A683749BB6913438B6006E0354BFC
:10290C009A68BB69DB43334913408B603B685B6857
:10291C0003F40013002B06D02E4BDA682D49BB694B
:10292C001343CB6006E02B4BDA68BB69DB432949C8
:10293C001340CB603B685B6803F40033002B06D07C
:10294C00244B5A682349BB6913434B6006E0214B67
:10295C005A68BB69DB431F4913404B603B685B689B
:10296C0003F48033002B06D01A4B1A681949BB6943
:10297C0013430B6006E0174B1A68BB69DB43154920
:10298C0013400B607B6A01337B623B681A687B6A7D
:10299C0022FA03F3002B7FF4AFAE00BF00BF2C373D
:1029AC00BD4680BC704700BF0000321000003110E3
:1029BC000000221000002110000012100000111065
:1029CC00001002400000014000080140000C0140D2
:1029DC00001001400004014080B483B000AF786067
:1029EC000B467B8013467B707B78002B03D07A8858
:1029FC007B681A6103E07B881A047B681A6100BF4C
:102A0C000C37BD4680BC704780B485B000AF786091
:102A1C000B467B807B68DB68FB607A88FB68134025
:102A2C001A04FB68D9437B880B401A437B681A61F4
:102A3C0000BF1437BD4680BC7047000080B586B01F
:102A4C0000AF78607B68002B01D101236CE27B68BE
:102A5C001B6803F00103002B00F08780924B5B682E
:102A6C0003F00C03042B0CD08F4B5B6803F00C03AE
:102A7C00082B12D18C4B5B6803F48033B3F5803F89
:102A8C000BD1894B1B6803F40033002B6CD07B6893
:102A9C005B68002B68D1012346E27B685B68B3F569
:102AAC00803F06D1804B1B687F4A43F48033136010
:102ABC002EE07B685B68002B0CD17B4B1B687A4A41
:102ACC0023F480331360784B1B68774A23F48023FC
:102ADC0013601DE07B685B68B3F5A02F0CD1724BC3
:102AEC001B68714A43F4802313606F4B1B686E4A5A
:102AFC0043F4803313600BE06B4B1B686A4A23F47E
:102B0C0080331360684B1B68674A23F4802313607F
:102B1C007B685B68002B13D0FFF7CCFC386108E0B6
:102B2C00FFF7C8FC02463B69D31A642B01D9032377
:102B3C00FAE15D4B1B6803F40033002BF0D014E07A
:102B4C00FFF7B8FC386108E0FFF7B4FC02463B69BC
:102B5C00D31A642B01D90323E6E1534B1B6803F40E
:102B6C000033002BF0D100E000BF7B681B6803F042
:102B7C000203002B63D04C4B5B6803F00C03002B5F
:102B8C000BD0494B5B6803F00C03082B1CD1464B54
:102B9C005B6803F48033002B16D1434B1B6803F0A6
:102BAC000203002B05D07B681B69012B01D001238C
:102BBC00BAE13D4B1B6823F0F8027B685B69DB00D4
:102BCC00394913430B603AE07B681B69002B20D01A
:102BDC00364B01221A60FFF76DFC386108E0FFF7F5
:102BEC0069FC02463B69D31A022B01D903239BE1F2
:102BFC002D4B1B6803F00203002BF0D02A4B1B68F3
:102C0C0023F0F8027B685B69DB00274913430B60F8
:102C1C0015E0264B00221A60FFF74CFC386108E0E7
:102C2C00FFF748FC02463B69D31A022B01D9032358
:102C3C007AE11D4B1B6803F00203002BF0D17B687B
:102C4C001B6803F00803002B3AD07B689B69002BB0
:102C5C0019D0174B01221A60FFF72CFC386108E0E1
:102C6C00FFF728FC02463B69D31A022B01D9032338
:102C7C005AE10D4B5B6A03F00203002BF0D00120EC
:102C8C0000F09AFA1CE00A4B00221A60FFF712FCC3
:102C9C0038610FE0FFF70EFC02463B69D31A022B9A
:102CAC0008D9032340E100BF00100240000042425B
:102CBC00800442429E4B5B6A03F00203002BE9D175
:102CCC007B681B6803F00403002B00F0A680002334
:102CDC00FB75974BDB6903F08053002B0DD1944BA4
:102CEC00DB69934A43F08053D361914BDB6903F06A
:102CFC008053BB60BB680123FB758E4B1B6803F4D0
:102D0C008073002B18D18B4B1B688A4A43F4807359
:102D1C001360FFF7CFFB386108E0FFF7CBFB0246EF
:102D2C003B69D31A642B01D90323FDE0814B1B684B
:102D3C0003F48073002BF0D07B68DB68012B06D189
:102D4C007B4B1B6A7A4A43F0010313622DE07B68CC
:102D5C00DB68002B0CD1764B1B6A754A23F0010300
:102D6C001362734B1B6A724A23F0040313621CE058
:102D7C007B68DB68052B0CD16D4B1B6A6C4A43F0EE
:102D8C00040313626A4B1B6A694A43F00103136222
:102D9C000BE0674B1B6A664A23F001031362644B1A
:102DAC001B6A634A23F0040313627B68DB68002B05
:102DBC0015D0FFF77FFB38610AE0FFF77BFB02467B
:102DCC003B69D31A41F28832934201D90323ABE019
:102DDC00574B1B6A03F00203002BEED014E0FFF7F5
:102DEC0069FB38610AE0FFF765FB02463B69D31AC1
:102DFC0041F28832934201D9032395E04C4B1B6A74
:102E0C0003F00203002BEED1FB7D012B05D1484BC7
:102E1C00DB69474A23F08053D3617B68DB69002B65
:102E2C0000F08180424B5B6803F00C03082B61D0EF
:102E3C007B68DB69022B46D13F4B00221A60FFF7FF
:102E4C0039FB386108E0FFF735FB02463B69D31AC2
:102E5C00022B01D9032367E0354B1B6803F0007389
:102E6C00002BF0D17B681B6AB3F5803F08D1304B47
:102E7C005B6823F400327B689B682D4913434B60DD
:102E8C002B4B5B6823F474127B68196A7B685B6A52
:102E9C000B43274913434B60274B01221A60FFF762
:102EAC0009FB386108E0FFF705FB02463B69D31AC2
:102EBC00022B01D9032337E01D4B1B6803F0007371
:102ECC00002BF0D02FE01C4B00221A60FFF7F2FA17
:102EDC00386108E0FFF7EEFA02463B69D31A022B81
:102EEC0001D9032320E0124B1B6803F00073002B65
:102EFC00F0D118E07B68DB69012B01D1012313E0D1
:102F0C000B4B5B68FB60FB6803F480327B681B6ACD
:102F1C009A4206D1FB6803F470127B685B6A9A4292
:102F2C0001D0012300E0002318461837BD4680BDB0
:102F3C0000100240007000406000424280B584B036
:102F4C0000AF786039607B68002B01D10123D0E0A1
:102F5C006A4B1B6803F007033A689A4210D9674B17
:102F6C001B6823F0070265493B6813430B60634BF6
:102F7C001B6803F007033A689A4201D00123B8E0BA
:102F8C007B681B6803F00203002B20D07B681B6856
:102F9C0003F00403002B05D0594B5B68584A43F4EB
:102FAC00E06353607B681B6803F00803002B05D0BB
:102FBC00534B5B68524A43F460535360504B5B680D
:102FCC0023F0F0027B689B684D4913434B607B6890
:102FDC001B6803F00103002B40D07B685B68012B5E
:102FEC0007D1474B1B6803F40033002B15D1012389
:102FFC007FE07B685B68022B07D1414B1B6803F0B9
:10300C000073002B09D1012373E03D4B1B6803F0C7
:10301C000203002B01D101236BE0394B5B6823F0D9
:10302C0003027B685B68364913434B60FFF742FA37
:10303C00F8600AE0FFF73EFA0246FB68D31A41F249
:10304C008832934201D9032353E02D4B5B6803F084
:10305C000C027B685B689B009A42EBD1274B1B6888
:10306C0003F007033A689A4210D2244B1B6823F0F2
:10307C00070222493B6813430B60204B1B6803F08B
:10308C0007033A689A4201D0012332E07B681B683F
:10309C0003F00403002B08D0194B5B6823F4E062A7
:1030AC007B68DB68164913434B607B681B6803F035
:1030BC000803002B09D0124B5B6823F460527B6829
:1030CC001B69DB000E4913434B6000F021F80246EC
:1030DC000B4B5B681B0903F00F030A49CB5C22FA0C
:1030EC0003F3094A1360094B1B681846FFF7A0F954
:1030FC00002318461037BD4680BD00BF002002409B
:10310C0000100240283A00080000002004000020B3
:10311C0080B487B000AF0023FB600023BB600023AA
:10312C007B6100237B6000233B611E4B5B68FB6073
:10313C00FB6803F00C03042B02D0082B03D027E010
:10314C00194B3B6127E0FB689B0C03F00F03174AFC
:10315C00D35C7B60FB6803F48033002B10D0114BE5
:10316C005B685B0C03F00103114AD35CBB607B68AA
:10317C000D4A02FB03F2BB68B2FBF3F37B6104E084
:10318C007B680C4A02FB03F37B617B693B6102E0C9
:10319C00054B3B6100BF3B6918461C37BD4680BCE4
:1031AC00704700BF0010024000127A00383A000845
:1031BC00483A000800093D0080B485B000AF786043
:1031CC000A4B1B680A4AA2FB03235B0A7A6802FBC0
:1031DC0003F3FB6000BFFB685A1EFA60002BF9D1A9
:1031EC0000BF00BF1437BD4680BC704700000020F4
:1031FC00D34D621080B582B000AF78607B68002B35
:10320C0001D1012341E07B6893F83D30DBB2002B08
:10321C0006D17B68002283F83C207868FFF770F8B1
:10322C007B68022283F83D207B681A687B68043334
:10323C001946104600F056FA7B68012283F84620A6
:10324C007B68012283F83E207B68012283F83F20B3
:10325C007B68012283F840207B68012283F841209F
:10326C007B68012283F842207B68012283F843208B
:10327C007B68012283F844207B68012283F8452077
:10328C007B68012283F83D20002318460837BD4691
:10329C0080BD000080B485B000AF78607B6893F887
:1032AC003D30DBB2012B01D0012335E07B680222DB
:1032BC0083F83D207B681B68DA687B681B6842F0EA
:1032CC000102DA607B681B68164A934209D07B685E
:1032DC001B68B3F1804F04D07B681B68124A934281
:1032EC0011D17B681B689B6803F00703FB60FB68CC
:1032FC00062B10D07B681B681A687B681B6842F031
:10330C0001021A6007E07B681B681A687B681B68FF
:10331C0042F001021A60002318461437BD4680BCE7
:10332C00704700BF002C01400004004080B584B001
:10333C0000AF78607B681B68DB68FB607B681B6890
:10334C001B69BB60BB6803F00203002B20D0FB6839
:10335C0003F00203002B1BD07B681B686FF002028A
:10336C001A617B6801221A777B681B689B6903F0E2
:10337C000303002B03D0786800F098F905E0786817
:10338C0000F08BF9786800F09AF97B6800221A77C4
:10339C00BB6803F00403002B20D0FB6803F004038C
:1033AC00002B1BD07B681B686FF004021A617B68D2
:1033BC0002221A777B681B689B6903F44073002B0D
:1033CC0003D0786800F072F905E0786800F065F9D0
:1033DC00786800F074F97B6800221A77BB6803F0F8
:1033EC000803002B20D0FB6803F00803002B1BD034
:1033FC007B681B686FF008021A617B6804221A77DD
:10340C007B681B68DB6903F00303002B03D078682F
:10341C0000F04CF905E0786800F03FF9786800F0AE
:10342C004EF97B6800221A77BB6803F01003002B5F
:10343C0020D0FB6803F01003002B1BD07B681B68AB
:10344C006FF010021A617B6808221A777B681B6880
:10345C00DB6903F44073002B03D0786800F026F985
:10346C0005E0786800F019F9786800F028F97B68B5
:10347C0000221A77BB6803F00103002B0CD0FB6809
:10348C0003F00103002B07D07B681B686FF001026F
:10349C001A617868FEF7AAFEBB6803F08003002B64
:1034AC000CD0FB6803F08003002B07D07B681B68F3
:1034BC006FF080021A61786800F06FFABB6803F055
:1034CC004003002B0CD0FB6803F04003002B07D00B
:1034DC007B681B686FF040021A61786800F0F8F89E
:1034EC00BB6803F02003002B0CD0FB6803F0200317
:1034FC00002B07D07B681B686FF020021A6178687C
:10350C0000F042FA00BF1037BD4680BD80B584B0D4
:10351C0000AF786039600023FB737B6893F83C3014
:10352C00012B01D10223B4E07B68012283F83C20FB
:10353C007B68022283F83D207B681B689B68BB601C
:10354C00BB6823F07703BB60BB6823F47F43BB608D
:10355C007B681B68BA689A603B681B68B3F5005FB0
:10356C003ED0B3F5005F00F28780B3F5805F00F0CA
:10357C008680B3F5805F7FD8702B1AD0702B7BD8E8
:10358C00602B50D0602B77D8502B3CD0502B73D85D
:10359C00402B58D0402B6FD8302B64D0302B6BD8AD
:1035AC00202B60D0202B67D8002B5CD0102B5AD04E
:1035BC0062E07B6818683B6899683B685A683B68AE
:1035CC00DB6800F06AF97B681B689B68BB60BB68B2
:1035DC0043F07703BB607B681B68BA689A604FE066
:1035EC007B6818683B6899683B685A683B68DB687D
:1035FC0000F053F97B681B689A687B681B6842F47F
:10360C0080429A603CE07B6818683B6859683B686C
:10361C00DB681A4600F0CAF87B681B685021184614
:10362C0000F021F92CE07B6818683B6859683B680E
:10363C00DB681A4600F0E8F87B681B6860211846C6
:10364C0000F011F91CE07B6818683B6859683B680E
:10365C00DB681A4600F0AAF87B681B684021184604
:10366C0000F001F90CE07B681A683B681B6819468E
:10367C00104600F0F8F803E00123FB7300E000BFF4
:10368C007B68012283F83D207B68002283F83C2074
:10369C00FB7B18461037BD4680BD80B483B000AFAD
:1036AC00786000BF0C37BD4680BC704780B483B0D7
:1036BC0000AF786000BF0C37BD4680BC704780B44B
:1036CC0083B000AF786000BF0C37BD4680BC70473C
:1036DC0080B483B000AF786000BF0C37BD4680BCAF
:1036EC007047000080B485B000AF786039607B68AB
:1036FC001B68FB607B682B4A934207D07B68B3F155
:10370C00804F03D07B68284A934208D1FB6823F092
:10371C007003FB603B685B68FA681343FB607B6873
:10372C00204A934207D07B68B3F1804F03D07B686B
:10373C001D4A934208D1FB6823F44073FB603B683D
:10374C00DB68FA681343FB60FB6823F080023B687C
:10375C005B691343FB607B68FA681A603B689A6884
:10376C007B68DA623B681A687B689A627B680D4AF0
:10377C00934203D13B681A697B681A637B68012208
:10378C005A617B681B6903F00103002B05D07B6831
:10379C001B6923F001027B681A6100BF1437BD4618
:1037AC0080BC7047002C01400004004080B487B0FE
:1037BC0000AFF860B9607A60FB681B6A7B61FB68DC
:1037CC001B6A23F00102FB681A62FB689B693B6170
:1037DC003B6923F0F0033B617B681B013A6913439F
:1037EC003B617B6923F00A037B617A69BB681343F5
:1037FC007B61FB683A699A61FB687A691A6200BF5F
:10380C001C37BD4680BC704780B487B000AFF860F1
:10381C00B9607A60FB681B6A7B61FB681B6A23F0EA
:10382C001002FB681A62FB689B693B613B6923F4DD
:10383C0070433B617B681B033A6913433B617B69B3
:10384C0023F0A0037B61BB681B017A6913437B6186
:10385C00FB683A699A61FB687A691A6200BF1C3787
:10386C00BD4680BC704780B485B000AF78603960CD
:10387C007B689B68FB60FB6823F07003FB603A6815
:10388C00FB68134343F00703FB607B68FA689A609C
:10389C0000BF1437BD4680BC704780B487B000AF02
:1038AC00F860B9607A603B60FB689B687B617B6900
:1038BC0023F47F437B613B681A027B681A43BB6825
:1038CC0013437A6913437B61FB687A699A6000BF82
:1038DC001C37BD4680BC704780B485B000AF7860A3
:1038EC0039607B6893F83C30012B01D1022341E015
:1038FC007B68012283F83C207B68022283F83D2000
:10390C007B681B685B68FB607B681B689B68BB60A3
:10391C00FB6823F07003FB603B681B68FA68134379
:10392C00FB607B681B68FA685A607B681B68144AEA
:10393C00934209D07B681B68B3F1804F04D07B683D
:10394C001B68104A93420CD1BB6823F08003BB6008
:10395C003B685B68BA681343BB607B681B68BA68DA
:10396C009A607B68012283F83D207B68002283F8F3
:10397C003C20002318461437BD4680BC704700BF5E
:10398C00002C01400004004080B483B000AF78608C
:10399C0000BF0C37BD4680BC704780B483B000AF0D
:1039AC00786000BF0C37BD4680BC704770B50026F0
:1039BC000C4D0D4C641BA410A64209D100F022F84A
:1039CC0000260A4D0A4C641BA410A64205D170BDFA
:1039DC0055F8043B98470136EEE755F8043B9847F9
:1039EC000136F2E74C3A00084C3A00084C3A000811
:1039FC00503A000803460244934200D1704703F842
:103A0C00011BF9E7F8B500BFF8BC08BC9E4670472F
:0C3A1C00F8B500BFF8BC08BC9E4670471F
:103A28000000000000000000010203040607080966
:103A380002030405060708090A0B0C0D0E0F1010E7
:043A48000102000077
:043A4C00310100083C
:043A50000D0100085C
:0C3A540000127A001000000001000000C9
:04000005080023C507
:00000001FF
